:020000041000EA
:1000000000B5324B212058609868022188439860DF
:10001000D860186158612E4B002199600221596106
:100020000121F02299502B49196001219960352056
:1000300000F044F80222904214D00621196600F024
:1000400034F8196E01211966002018661A6600F04E
:100050002CF8196E196E196E052000F02FF8012189
:100060000842F9D1002199601B49196000215960AB
:100070001A491B48016001219960EB211966A021F2
:10008000196600F012F800219960164914480160C1
:100090000121996001BC002800D000471248134993
:1000A000086003C880F30888084703B5996A0420EC
:1000B0000142FBD001200142F8D103BD02B5186610
:1000C0001866FFF7F2FF186E186E02BD00000240BE
:1000D000000000180000070000035F00212200005C
:1000E000F4000018222000A00001001008ED00E03C
:1000F00000000000000000000000000074B24E7A12
:1001000000200420F7010010C3010010C5010010F9
:10011000C1010010C1010010C1010010C101001097
:10012000C1010010C1010010C1010010C701001081
:10013000C1010010C1010010C9010010CB01001065
:10014000CD010010CD010010CD010010CD01001037
:10015000CD010010CD010010CD010010CD01001027
:10016000CD010010CD010010CD010010CD01001017
:10017000CD010010CD010010CD010010CD01001007
:10018000CD010010CD010010CD010010CD010010F7
:10019000CD010010CD010010CD010010CD010010E7
:1001A000CD010010CD010010CD010010CD010010D7
:1001B000CD010010CD010010CD010010CD010010C7
:1001C00000BE00BE00BE00BE00BE00BE00F04BF888
:1001D000103800BEF2EB887108B70A102CB70A106D
:1001E0003402001090A31AE700202149086006C8D5
:1001F00081F3088810471F48006800282FD10DA4FC
:100200000ECC002902D000F012F8F9E71A491B4A77
:10021000002000E001C19142FCD1194988471949E9
:1002200088471949884700BEFDE701C901C29A42C3
:10023000FBD370472CB70A10C00000200028002014
:100240006CDE0A1000000420000004206CDE0A109E
:1002500000100420001004200000000070470B482C
:100260000AF0FEFA0047EFF30580C0B270470000C5
:1002700008ED00E0000000D0002800204800012028
:10028000A5910010055B0010619100105756000009
:1002900006005250ABB3605398020610060052504D
:1002A000861C030230E50510060052505422A29D20
:1002B000A802061005005250DE65F4686CDE0A10D4
:1002C000F8B5C04606480749091A8B10C90FC91866
:1002D00010B5491003D0044B002B00D0984710BD37
:1002E000002800200028002000000000054B10B569
:1002F000002B03D00449054800E000BFFFF7E2FFF0
:1003000010BDC04600000000E0EC0020F89E051083
:1003100010B503685B68984710BD0000024B03608E
:10032000024B03607047C046F4E80510DCE8051096
:10033000024B0360024B03607047C0460CE9051096
:10034000C0E8051010B503000C30DB689B689847C7
:1003500010BD000010B50400044B0360044B0360A3
:1003600014210BF07FFC200010BDC0460CE90510E5
:10037000C0E8051010B50400044B0360044B036093
:1003800008210BF06FFC200010BDC046F4E80510FA
:10039000DCE8051010B50C300400064B994204D07F
:1003A000080034F05DFE002801D0200010BD0024BC
:1003B000FBE7C046F8F1051010B540684468054BEE
:1003C0001B1B9A4202D835F02FFB10BD02482AF0C1
:1003D00007FBC046FFFFFF3FF89E051070B5040005
:1003E0000D00012805D0002C02D10C4B9D420ED0EF
:1003F00070BD0A4B9942F6D1094817F0F5FD094B3B
:100400001A0008321A6000225A601A72EBE7054897
:1004100035F004F9024817F0F7FDE9E7FFFF0000A7
:10042000803F00201029002000B585B003AB019368
:100430000290054B0360054B0360002802D0142195
:100440000BF010FC05B000BD0CE90510C0E805106C
:10045000F0B583B00E00446867687D1C22682300F5
:1004600008339A420BD0A3689D420AD82368DE5510
:10047000656023685B1900221A7003B0F0BD0F237A
:10048000F2E701230093002300223900200035F019
:10049000F3F8EBE7F0B5DE4657464E464546E0B585
:1004A000A1B083468A461392349C23003C3300DA81
:1004B00088E023001F3300DB8AE0349D2C9B9D42A3
:1004C00000D08BE0329A339B2A982B99994200D91D
:1004D0008DE000D188E0121A8B41189219931A9579
:1004E0000C920D93349D309B9D4200D085E0329A52
:1004F000339B2E982F99994200D987E000D182E052
:10050000121A8B411C921D931E950692079363420B
:100510009846203B00D57FE00021002210911192E7
:1005200001229A4011920123424693401093109A5F
:10053000119B149215931694329833994346203B9D
:1005400075D40A00DA4094460B9201225242D31726
:10055000109C119DA4185D410E940F95230003403B
:100560001E002B000B401F006346002B6AD0BD4BC2
:100570000B9A9A4276D8BC4B9A427DD8BB4B9A4292
:1005800000D983E0BA4B9A4200D989E0B94B9A422C
:1005900000D98FE0B84B9A4200D995E0FA239B002E
:1005A0009A4200D39AE0632A00D9A2E0092A4FD8E0
:1005B0000123012291465A461292CB46D146C246A9
:1005C0009846BFE0AD4BAE4AAE48AF4908F0CCFD0F
:1005D000AE4BAB4AAB48AE4908F0C6FDAD4BAE4A98
:1005E000A848AE4908F0C0FD904200D873E7AC4B74
:1005F000A94AA448AB4908F0B7FDA64BA64AA148B2
:10060000A64908F0B1FD904200D879E7A44BA24A70
:100610009C48A44908F0A8FD202342469B1A0021CB
:100620000022109111920122DA4011927BE72023DF
:1006300042469B1A0A009A40130002004446E240D8
:100640001A4380E7984B8E4A8E48984908F08CFDF3
:100650000A23022291465A461292CB46D146C246FE
:1006600098466FE0924B0A2291465A461292CB4628
:10067000D146C246984665E08E4B092291465A46BD
:100680001292CB46D146C24698465BE08A4B08227E
:1006900091465A461292CB46D146C246984651E000
:1006A000864B072291465A461292CB46D146C24605
:1006B000984647E0824B062291465A461292CB4614
:1006C000D146C24698463DE07E4B052291465A46A9
:1006D0001292CB46D146C246984633E0FA239B009D
:1006E000042291465A461292CB46D146C2469846BB
:1006F00028E06423032291465A461292CB46D14603
:10070000C24698461EE0704B5D4A5E486F4908F04D
:100710002BFD20225146521A0B99D1400A0000218C
:10072000099111430991524693400893089C099DF1
:10073000A4197D410D9B9D4229D90A2140460AF00A
:10074000E3F880465B46002B00DC10E141460B9D40
:1007500028000AF0D9F80400414628000AF0D4F82D
:100760000B91092CCFD830344B461B685A1C494694
:100770000A60129AD45401235B429C46E3440B99CD
:100780000B005246203AC4D491400991CBE70C9A11
:100790000D9B9D4201D19442CFD842464046D0465F
:1007A000CA46D946129B9B4613990B684B440B6073
:1007B0001300414620391CD40A00010091400F006B
:1007C000424693401E0053461B689C46002B18DD92
:1007D000069807990D9A91421DD818D00C9A0D9B36
:1007E0009D4221D81DD033003B4323D00096019772
:1007F0009EE020224146521A0100D14000270F43BB
:10080000DEE7334B334A1F48334908F0ADFC069B03
:100810000C9A9342E2D9314B2E4A1A48304908F0DB
:10082000A3FC0C9B9C42DED92E4B2A4A15482E492C
:1008300008F09AFC2D4B274A12482D4908F094FCE9
:100840002C4B244A0F482C4908F08EFC069A079B33
:10085000AB4200D065E1A2426DD862E100999142BD
:1008600073D95EE1FFC99A3BFFE0F5057F969800DA
:100870003F420F009F8601000F270000109F0510C8
:10088000249F051020A00510124400005CA0051054
:100890001344000070A005107CA00510FD4100006D
:1008A0006CA10510FE41000078A10510284400004D
:1008B00000CA9A3B00E1F5058096980040420F007F
:1008C000A08601001027000080A105104C44000004
:1008D00088A1051094A10510DA4300000CA20510B0
:1008E000DB4300001CA20510DC4300002CA2051015
:1008F000DD43000038A20510F6430000069A079B6E
:1009000016001F00361BAF4134003D0006000F00EB
:10091000B61A9F41BD4224D96346013B5A46D218BC
:100920005C46E35C302B8BD0013B137004000D0060
:10093000079BAB428AD90C9A0D9B121BAB410098C6
:100940000199994200D9ECE088D0009801990019EA
:100950006941069A079B8B42DED8CFD18242DBD811
:10096000CCE7BD4200D0DCE0B442D5D8D9E0D046D7
:10097000129B9B46CA460D9B9F4204D900210C9AAC
:100980000D9B8C465EE00C9B0D9CA74201D19E42C4
:10099000F4D8854B854A8648864908F0E5FB8649A8
:1009A0008E4253D9854B814A8148854908F0DCFB4A
:1009B00020244546641BA1460C004D46AC40A14690
:1009C00004004546EC404D46254308950C0045463D
:1009D000EC40A1460E9C044026000F9C0C402700D2
:1009E000494600294BD147D0089830305146096814
:1009F0004C1CA14654464D4625605C46605401217E
:100A00008946CC44910F98000390084303909100CD
:100A100002910298039912184B4192185B41069C6F
:100A2000079DA10FA800059008430590A10004911F
:100A30000498059924184D4124196D410694079591
:100A40009F4222D95F498F42ACD8A8D0B00FB900DD
:100A5000019101430191B100009100980199801921
:100A60007941001849414446203CA1D4A1460C00DC
:100A70004D46EC400894A9E708990929B4D9524B8E
:100A80004A4A4B48514908F06FFB9F4201D19642B8
:100A9000D8D80C920D936146139A13685B1A1360B1
:100AA00053461B689C46002B16DD0699079A0C9B43
:100AB0000D9CA2421AD815D00C9B0D9CA7421ED8A3
:100AC0001AD0109A119B110019434FD1404B414A43
:100AD0003748414908F048FB404B3E4A34484049BA
:100AE00008F042FB069B0C9A9342E5D93D4B394AEC
:100AF0002F483D4908F038FB0C9B9E42E1D93B4B07
:100B0000344A2B483A4908F02FFB3A4B314A2848DF
:100B1000394908F029FB069B079CBC4201D1B3422E
:100B200027D821B0F0BCBB46B246A946A046F0BDCE
:100B30001099914226D9F4E7069C079D20002900D0
:100B4000801BB94106000F0010001900001BA941CD
:100B50008F4223D961460139584640185C46615C92
:100B60003029D2D00139017016001F00079BBB420B
:100B7000D1D90C9A0D9B921BBB41109811999942A7
:100B8000CFD8D5D0109A119B92197B41069807991E
:100B90009942DFD8D0D19042DCD8CDE78F42C0D186
:100BA0008642D7D8BDE7C0464CA20510249F051049
:100BB00020A00510A34400009999999958A2051006
:100BC000AE4400009999991980A10510B74400001E
:100BD0002CA2051094A10510DD43000088A105108A
:100BE000DA4300000CA20510DB4300001CA2051034
:100BF000DC43000038A20510F6430000F0B5C646FD
:100C000000B505000E001700069A002B18DA002A1E
:100C10001CDDCC19A14201DCA2421DDA002C2EDD24
:100C2000A2422CDBA64224DD601C28182C197A4233
:100C300021004BF077F92E2323700136A8193CE0F0
:100C40004C4B4D4A4D484E4908F08EFA4D4B4A4A9E
:100C50004A484D4908F088FA40183A0030210AF015
:100C6000E5FF2E232B55631C3022EA540234281949
:100C700023E0464B404A4148454908F075FAA342F3
:100C800001DA002C1CDD012E2FD101356B1C6522F1
:100C90002A70013C3F4A944231DBFA22920094428E
:100CA00033DA002C37DB5D1C2B221A70092C37D865
:100CB00030232B703034A81C6C7080BCB846F0BD5B
:100CC00002239846181B2818320029004BF02AF9F5
:100CD00030232B70023B6B70A81C624230210AF05B
:100CE000A5FF4346D81B2818E7E7A81C691C721EFD
:100CF0004BF018F92E236B700136AD19C6E7264B61
:100D0000264A1E48264908F02FFA264B234A1B483C
:100D1000254908F029FA64425D1C2D221A70C5E7A6
:100D2000632C0DD80A21200009F0EEFD3030287028
:100D30000A21200009F0E8FD3031A81C6970BCE7E9
:100D40006421200009F0E0FD30302870642120008B
:100D500009F0DAFD0C000A21200009F0D5FD303041
:100D600068700A21200009F0CFFD3031E81CA9701D
:100D7000A3E7C04690A205109CA2051020A0051074
:100D80008C450000FCA205108D45000008A305104D
:100D9000A745000019FCFFFF10A305101CA30510B8
:100DA0005745000070A3051058450000F0B583B00A
:100DB0000D0017001E0001A916F0A2FDA022B1B27D
:100DC0009200362010F02EF80400406832003900FE
:100DD0000AF032FF0BF0B0FCABB2064A106801AA71
:100DE000210013F063FF0BF0C5FC20000FF0EBFFB8
:100DF00003B0F0BD14000120F0B5DE4657464E4664
:100E00004546E0B587B0814631490123002234F0E0
:100E1000CDFE421C4B461B689A4605AB51468A5C88
:100E20001A7002300A5C5A7001AA2A4B31CB31C2C7
:100E30001B681360012500239B4698462BE0013474
:100E40000F2C24DC05AB5A5D01AB1B5D9A42F6D139
:100E500058460AF035F802000B0000201E490AF03F
:100E600037FC06000F0020000AF02AF832003B0091
:100E700009F0B1FF06000F0040460AF021F83200E9
:100E80003B0009F089FF0AF033F88046D7E70123D9
:100E90009C46E344013D002D01DB0024D0E7012303
:100EA00000214A465268934206D25246D25C2A2A10
:100EB00002D051400133F4E7884507D0002007B045
:100EC000F0BCBB46B246A946A046F0BD0120F6E7FD
:100ED0007CA30510DC5C061000003040F0B587B044
:100EE00005000F00160023490223002234F05EFEA5
:100EF0000230002302E003A9CA540133062B04DCAC
:100F00001C182A68125D2C2AF5D105A903A84DF0FA
:100F1000FBFC0022184B09F05EFF0AF027FB0022C1
:100F2000154B09F03EFF3860796014490223002216
:100F3000280034F03BFE02300023062B08DC191891
:100F40002A68525C2C2A03D001A9CA540133F4E761
:100F500005A901A84DF0D8FC0022074B09F03BFF82
:100F60000AF004FB0022044B09F01BFF30607160A3
:100F700007B0F0BD80A305100000244084A3051035
:100F800010B5002303708360DBB2012B0FD0022B5E
:100F900016D0032B1DD0082B24D00378012B2AD088
:100FA000022B31D0032B38D0082B3FD010BD0022AC
:100FB000002AECD1224B234A2348244908F0D4F8D4
:100FC0008268002AE5D1224B1E4A1F48214908F0B9
:100FD000CBF88268002ADED11F4B1A4A1A481F49F3
:100FE00008F0C2F88368002BD7D11D4B154A16486C
:100FF0001C4908F0B9F88268002AD1D1104B114A77
:101000001148124908F0B0F88268002ACAD1104B82
:101010000C4A0D480F4908F0A7F88268002AC3D18E
:101020000D4B084A08480D4908F09EF88368002BCC
:10103000BCD10B4B034A04480A4908F095F8C04656
:1010400088A30510C0A3051020A00510B44D000012
:1010500030A60510B54D000068A60510B64D00007D
:10106000A0A60510B74D000070B50B78012B1BD062
:10107000022B22D0032B29D0082B30D003780A78FA
:1010800002700B708268C3688C68CD688460C5602C
:101090008A60CB600378012B2AD0022B31D0032B3E
:1010A00038D0082B3FD070BD8A68002AE0D1224B8F
:1010B000224A2348234908F057F88A68002AD9D1E0
:1010C000214B1E4A1E48214908F04EF88A68002A22
:1010D000D2D11F4B194A1A481E4908F045F88B68AF
:1010E000002BCBD11C4B154A15481C4908F03CF885
:1010F0008268002AD1D1104B104A1148114908F0DA
:1011000033F88268002ACAD10F4B0C4A0C480F49A9
:1011100008F02AF88268002AC3D10D4B074A084814
:101120000C4908F021F88368002BBCD10A4B034A14
:1011300003480A4908F018F888A30510C0A3051051
:1011400020A00510B44D000030A60510B54D0000DC
:1011500068A60510B64D0000A0A60510B74D00000A
:1011600070B582B005000E1E0DD0941B01940F2C9B
:101170000ED82868012C14D0002C14D02200310085
:101180000AF05AFD0FE09142EFD00B4829F010FC15
:10119000002201A9280034F023FA2860019BAB60EB
:1011A000E7E733780370019A6A602B689B18002286
:1011B0001A7002B070BDC046D8A60510F0B5DE4664
:1011C00057464E464546E0B583B08146884692462E
:1011D00000240025002600239B460022002702E170
:1011E000FF25C5401D400EE1B94BBA4ABA48BB497C
:1011F00007F0BAFF222D09D8072D67D92B00083B2D
:101200001A2B63D89B00B64AD3589F465C2D5DD1FC
:101210007B1C4E224946C8195C2181544B4402373D
:10122000995409E07B1C4E224946C9195C20885418
:101230004B4402376221995480239B00DB1B0C2B0B
:1012400000D9FDE04B46186803685B683A004946E0
:101250004E31984700239B4600220027C2E07B1CAA
:101260004E224946C9195C2088544B4402377421E8
:101270009954E1E77B1C4E224946C9195C208854E9
:101280004B4402376E219954D6E77B1C4E224946C7
:10129000C9195C2088544B44023766219954CBE726
:1012A0007B1C4E224946C9195C2088544B440237A6
:1012B00072219954C0E77B1C4E224946C9195C2013
:1012C00088544B44023722219954B5E71F2D04D985
:1012D0005346002B25D07E2D23D980235B029D42CF
:1012E0000AD22B041B0C7F4A48464E30C0190721F6
:1012F00009F076FA06379FE7AB0A7B4A94466344C7
:101300009BB2A905890D794A9446614489B2784A0D
:1013100048464E30C01900910D2109F061FA0C3792
:101320008AE743461B68995D4B46DA194E23D15430
:10133000013781E79A239B004946CB58002B0ED0FA
:1013400047DB581E012844D85946002900D0013EE9
:10135000012B06D01700002400239B4642E048F0F2
:1013600009FA5346002B25D0511C4E2348468018BD
:101370005C24C454901C49441934CC54D11C4844B6
:101380000F3CC454101D4944CC54511D4844C4540E
:10139000494406326420C85480239B009B1A0C2BBE
:1013A000D8D84B46186803685B6849464E31984761
:1013B0000022CFE7501C4E214B469B18EF245C5473
:1013C000931C4844303C44544B440332BD20585491
:1013D000E2E7484B484A4048484907F0C5FE012328
:1013E0009C46E344013643465B689E422CD243460A
:1013F0001B689B5D4248C05C002C00D1F0E63F2199
:101400000B40AD011D43103424012418C8235B0098
:101410009C4200D3E8E63A4B1C5D002C00D1E9E683
:10142000012C87D05346002BD9D143461B689B5DC6
:101430009C464B46D8194E236146C1540137CEE72E
:101440003A0000239B46CDE7002C10D1002F07D097
:101450004B46186849464E3103685B683A00984726
:1014600003B0F0BCBB46B246A946A046F0BD9A23E5
:101470009B004946CB58022B16D023DC002B11D001
:10148000012B1FD1086803685B684E3198475346AB
:10149000002B0FD04B4618681A4903685B68062278
:1014A0009847DDE748F066F908684E3103685B68E5
:1014B0009847D5E74B461868134903685B680322D1
:1014C0009847CDE70B4B0C4A0348104907F04CFEF8
:1014D00004A7051010A7051020A00510A4490000BE
:1014E0003CA90510FCA70510C0D7FFFF00DCFFFFDB
:1014F00004A8051014A805101CA805103D480000FC
:1015000020E9051030A9051038A905107A48000017
:1015100070B582B005000E1E0DD0941B01940F2CE7
:101520000ED82868012C14D0002C14D022003100D1
:101530000AF082FB0FE09142EFD00B4829F038FA15
:10154000002201A9280034F04BF82860019BAB6011
:10155000E7E733780370019A6A602B689B180022D2
:101560001A7002B070BDC046D8A60510F0B5D646B8
:101570004F464646C0B584B08046894616008C6802
:101580000D1D012208E003AA11E0781BC20F0028FC
:1015900017DBE36825001C00002C14D02300103357
:1015A000776802975D680395AF42ECD802AA12688B
:1015B00030681968002AE8D04AF090FC0028E5D18C
:1015C000E3E7A368E6E72800002A05D04B46DB687E
:1015D000AB4225D018F0BEFB0190103043689A460C
:1015E000029377680397BB421ED802AB1A68006863
:1015F0003168002A03D04AF071FC002801D153461B
:10160000D81B002812DB4346019A1A600023424689
:101610005360404604B0E0BCBA46B146A846F0BDAF
:1016200043461C605D60F4E703ABDFE743461C60A4
:101630005D60EEE7F0B5C64600B582B00400160066
:101640001D0000290DD00120231D3200290018F0B3
:101650009DFB636901336361280002B080BCB8461A
:10166000F0BD031D9A4218D06B69984600935769E4
:101670000197BB420FD86B461A6828693169002A66
:1016800003D04AF02BFC002801D14346D81B002888
:1016900005DB0020D8E701ABEEE70120D4E701200D
:1016A000D2E7704770B506000C001CE08168002985
:1016B00026D0022A2AD0032A31D0082A38D001782D
:1016C000083000F053F8220010322069230018334C
:1016D000984203D0916801310AF0C4FA3821200001
:1016E0000AF0C0FA2C00002C2BD0E1683000FFF784
:1016F000D9FFA568200028300278012AD9D1D5E782
:10170000104B114A1148124907F02EFD816800293B
:10171000D1D1104B0C4A0D480F4907F025FD8168C7
:101720000029CAD10D4B084A08480D4907F01CFD95
:101730008268002AC3D10B4B034A04480A4907F0C8
:1017400013FD70BD88A30510C0A3051020A00510CF
:10175000B44D000030A60510B54D000068A6051078
:10176000B64D0000A0A60510B74D0000F0B5CE465E
:10177000474680B589B006000D004B1EDBB2012B39
:1017800024D9032D00D16CE200D91AE2012D00D139
:1017900026E2022D00D02BE237683C687D68A54226
:1017A00000D152E22378012B00D126E2022B00D196
:1017B0002DE2032B00D134E2082B00D13BE221784B
:1017C00020000830FFF7D2FF1034E8E70023019330
:1017D00002930393022914D00368596901A801F008
:1017E000C9F83768FC680437A74200D1FDE0210042
:1017F000283101A801F032F8200018F07FFA040027
:10180000F2E7036859681B68C91A091101A801F0B9
:10181000B1F8336818685C68FFF743FF07002000E1
:10182000FFF73FFFC41B2411002C00DCDDE0390072
:1018300001A801F013F81037013CF5E79968002979
:1018400000D0E4E0D04BD14AD148D24907F08CFC1B
:101850009968002900D0DDE0CF4BCC4ACC48CF4975
:1018600007F082FC9968002900D0D6E0CC4BC74A2B
:10187000C748CC4907F078FC9A68002A00D0CFE02E
:10188000C94BC24AC248C94907F06EFC069A002AF1
:1018900000D0D0E0BC4BBD4ABD48BE4907F064FC57
:1018A000069A002A00D0C9E0BB4BB84AB848BB49E9
:1018B00007F05AFC069A002A00D0C2E0B84BB34A9F
:1018C000B348B84907F050FC069B002B00D0BBE0A2
:1018D000B54BAE4AAE48B54907F046FC99680029B9
:1018E00000D0B8E0A84BA94AA948AA4907F03CFC97
:1018F0009968002900D0B1E0A74BA44AA448A749A1
:1019000007F032FC9968002900D0AAE0A44B9F4A56
:101910009F48A44907F028FC9A68002A00D0A3E059
:10192000A14B9A4A9A48A14907F01EFC390001A828
:1019300000F094FF1037013C002CF7DC069B984622
:101940001B68994643465F68B9453CD04C46A74260
:1019500033D02378012B0CD0022B13D0032B1AD0B9
:10196000082B21D0217820000830FFF7FFFE10342B
:10197000EDE7A268002AEFD1834B844A8448854969
:1019800007F0F2FBA268002AE8D1834B7F4A804827
:10199000824907F0E9FBA268002AE1D1804B7B4A2B
:1019A0007B48804907F0E0FBA368002BDAD17E4B2F
:1019B000764A77487D4907F0D7FB43464A465A6046
:1019C00001E0012B65D004AB1B78012B7CD0022BEE
:1019D00000D183E0032B00D18AE0082B00D191E0F5
:1019E00004AB197806A8FFF7C1FE019A029B9A4240
:1019F00000D191E0029B103B197804AA11709868FD
:101A0000D968069007911A78012A00D116E7022AB0
:101A100000D11DE7032A00D124E7082A00D12BE7D3
:101A200000221A70002000219860D96004AB1B7856
:101A3000012B00D12AE7022B00D131E7032B00D183
:101A400038E7082B00D13FE7029B103B02931A783E
:101A5000012A00D142E7022A00D149E7032A00D136
:101A600050E7082A00D157E7197808331800FFF724
:101A70007DFE04AB1B78022BA3D1069B18685C6823
:101A8000FFF70FFE07002000FFF70BFEC41B241119
:101A900052E7069FFC680437A74209D0210028318D
:101AA00001A800F0DBFE200018F028F90400F3E79D
:101AB000069CA1682000FFF7F5FD0023A360221D0E
:101AC000E260226163617EE7069A002A00D07EE729
:101AD0002D4B2E4A2E482F4907F046FB069A002A26
:101AE00000D077E72C4B294A29482C4907F03CFBCA
:101AF000069A002A00D070E7294B244A2448294935
:101B000007F032FB069B002B00D069E7264B1F4AEB
:101B10001F48264907F028FB14001F00A74247D0A2
:101B20002378012B0CD0022B13D0032B1AD0082BB7
:101B300021D0217820000830FFF718FE1034EDE79F
:101B4000A268002AEFD1104B104A1148114907F042
:101B50000BFBA268002AE8D10F4B0C4A0C480F4936
:101B600007F002FBA268002AE1D10D4B074A0848A2
:101B70000C4907F0F9FAA368002BDAD10A4B034AA3
:101B800003480A4907F0F0FA88A30510C0A305101E
:101B900020A00510B44D000030A60510B54D000082
:101BA00068A60510B64D0000A0A60510B74D0000B0
:101BB00001980399091A002800D1E2E50AF052F8C9
:101BC000DFE5082D14D1336818689968091A0028D0
:101BD00001D00AF047F8306820210AF043F807E006
:101BE00030688168FFF75EFD306818210AF03AF826
:101BF00009B0C0BCB946B046F0BDA268002A00D00A
:101C0000D4E51F4B1F4A2048204907F0ADFAA268CF
:101C1000002A00D0CDE51E4B1A4A1B481D4907F08B
:101C2000A3FAA268002A00D0C6E51B4B154A164845
:101C30001A4907F099FAA368002B00D0BFE5184BAA
:101C4000104A1148174907F08FFA3868B968091A1D
:101C5000002801D00AF006F830680C210AF002F8DA
:101C6000C6E7336818681A000832904203D09968B2
:101C7000013109F0F7FF3068182109F0F3FFB7E7E9
:101C800088A30510C0A3051020A00510B44D0000C6
:101C900030A60510B54D000068A60510B64D000031
:101CA000A0A60510B74D000010B504000378012B65
:101CB0000CD0022B13D0032B1AD0082B21D0217863
:101CC00020000830FFF752FD200010BD8268002A76
:101CD000EFD1104B104A1148114907F045FAA2689C
:101CE000002AE8D10F4B0C4A0C480F4907F03CFA88
:101CF000A268002AE1D10D4B074A08480C4907F0B9
:101D000033FAA368002BDAD10A4B034A03480A4985
:101D100007F02AFA88A30510C0A3051020A005101B
:101D2000B44D000030A60510B54D000068A60510A2
:101D3000B64D0000A0A60510B74D000070B584B0E8
:101D400004000E0000230370002200238260C360A1
:101D500008300021FFF70AFD03232370182009F043
:101D600071FF050001AB0293039003000833036089
:101D7000002E23D030004BF05DFD321800233100DF
:101D80002800FFF7EDF9039B002B19D000220392E6
:101D9000A3602378012B19D0022B20D0032B27D04E
:101DA000082B2ED02378012B34D0022B3BD0032BD1
:101DB00042D0082B49D0200004B070BD0122DDE7DD
:101DC000264B274A2748284907F0CEF9A268002A5F
:101DD000E2D1264B264A2348264907F0C5F9A268D6
:101DE000002ADBD1244B224A1E48244907F0BCF9C3
:101DF000A268002AD4D1224B1D4A1A48214907F073
:101E0000B3F9A368002BCDD11F4B194A15481F49C0
:101E100007F0AAF9A268002AC7D1144B144A114846
:101E2000144907F0A1F9A268002AC0D1124B104A48
:101E30000C48124907F098F9A268002AB9D1104B52
:101E40000B4A08480F4907F08FF9A368002BB2D15D
:101E50000D4B074A03480D4907F086F9A8A905105C
:101E6000B8A9051020A00510974C000088A3051004
:101E7000C0A30510B44D000030A60510B54D0000FC
:101E800068A60510B64D0000A0A60510B74D0000CD
:101E900070B584B004000E000023037000220023FC
:101EA0008260C36008300021FFF760FC03232370C9
:101EB000182009F0C7FE050001AB02930390030050
:101EC00008330360002E23D030004BF0B3FC3218EF
:101ED000002331002800FFF743F9039B002B19D0A2
:101EE00000220392A3602378012B19D0022B20D06B
:101EF000032B27D0082B2ED02378012B34D0022B94
:101F00003BD0032B42D0082B49D0200004B070BD39
:101F10000122DDE7264B274A2748284907F024F904
:101F2000A268002AE2D1264B264A2348264907F018
:101F30001BF9A268002ADBD1244B224A1E482449FF
:101F400007F012F9A268002AD4D1224B1D4A1A4880
:101F5000214907F009F9A368002BCDD11F4B194A7D
:101F600015481F4907F000F9A268002AC7D1144B91
:101F7000144A1148144907F0F7F8A268002AC0D1A2
:101F8000124B104A0C48124907F0EEF8A268002ADA
:101F9000B9D1104B0B4A08480F4907F0E5F8A36880
:101FA000002BB2D10D4B074A03480D4907F0DCF86E
:101FB000A8A9051064AC051020A00510974C0000DE
:101FC00088A30510C0A30510B44D000030A605106D
:101FD000B54D000068A60510B64D0000A0A605107E
:101FE000B74D000070B584B004000E0000230370EC
:101FF000002200238260C36008300021FFF7B6FB97
:1020000003232370182009F01DFE050001AB029385
:102010000390030008330360002E23D030004BF000
:1020200009FC3218002331002800FFF799F8039BC0
:10203000002B19D000220392A3602378012B19D022
:10204000022B20D0032B27D0082B2ED02378012B56
:1020500034D0022B3BD0032B42D0082B49D0200098
:1020600004B070BD0122DDE7264B274A27482849E6
:1020700007F07AF8A268002AE2D1264B264A2348C4
:10208000264907F071F8A268002ADBD1244B224AC6
:102090001E48244907F068F8A268002AD4D1224BD0
:1020A0001D4A1A48214907F05FF8A368002BCDD1DB
:1020B0001F4B194A15481F4907F056F8A268002A15
:1020C000C7D1144B144A1148144907F04DF8A268BF
:1020D000002AC0D1124B104A0C48124907F044F8AC
:1020E000A268002AB9D1104B0B4A08480F4907F0E3
:1020F0003BF8A368002BB2D10D4B074A03480D49AA
:1021000007F032F8A8A9051010AF051020A005109F
:10211000974C000088A30510C0A30510B44D000023
:1021200030A60510B54D000068A60510B64D00009C
:10213000A0A60510B74D000070B584B004000E00D5
:1021400000230370002200238260C3600830002156
:10215000FFF70CFB03232370182009F073FD050023
:1021600001AB02930390030008330360002E23D0D9
:1021700030004BF05FFB3218002331002800FEF7DF
:10218000EFFF039B002B19D000220392A36023785A
:10219000012B19D0022B20D0032B27D0082B2ED0B7
:1021A0002378012B34D0022B3BD0032B42D0082BB9
:1021B00049D0200004B070BD0122DDE7264B274A3C
:1021C0002748284906F0D0FFA268002AE2D1264B12
:1021D000264A2348264906F0C7FFA268002ADBD119
:1021E000244B224A1E48244906F0BEFFA268002A5A
:1021F000D4D1224B1D4A1A48214906F0B5FFA368E5
:10220000002BCDD11F4B194A15481F4906F0ACFFD2
:10221000A268002AC7D1144B144A1148144906F089
:10222000A3FFA268002AC0D1124B104A0C481249E1
:1022300006F09AFFA268002AB9D1104B0B4A084851
:102240000F4906F091FFA368002BB2D10D4B074A4E
:1022500003480D4906F088FFA8A90510BCB1051078
:1022600020A00510974C000088A30510C0A30510FE
:10227000B44D000030A60510B54D000068A605104D
:10228000B64D0000A0A60510B74D000070B584B093
:1022900004000E0000230370002200238260C3604C
:1022A00008300021FFF762FA03232370182009F099
:1022B000C9FC050001AB02930390030008330360DF
:1022C000002E23D030004BF0B5FA32180023310035
:1022D0002800FEF745FF039B002B19D00022039234
:1022E000A3602378012B19D0022B20D0032B27D0F9
:1022F000082B2ED02378012B34D0022B3BD0032B7C
:1023000042D0082B49D0200004B070BD0122DDE787
:10231000264B274A2748284906F026FFA268002AAC
:10232000E2D1264B264A2348264906F01DFFA26823
:10233000002ADBD1244B224A1E48244906F014FF10
:10234000A268002AD4D1224B1D4A1A48214906F01E
:102350000BFFA368002BCDD11F4B194A15481F490D
:1023600006F002FFA268002AC7D1144B144A114894
:10237000144906F0F9FEA268002AC0D1124B104A97
:102380000C48124906F0F0FEA268002AB9D1104BA1
:102390000B4A08480F4906F0E7FEA368002BB2D1AC
:1023A0000D4B074A03480D4906F0DEFEA8A90510AB
:1023B00068B4051020A00510974C000088A30510F4
:1023C000C0A30510B44D000030A60510B54D0000A7
:1023D00068A60510B64D0000A0A60510B74D000078
:1023E000F0B5DE4657464E464546E0B583B08046DA
:1023F00015000123009343680768DF1B3F11C44C9D
:102400000122BC4247D00197974247D301AA1268E4
:10241000BF18424612689B1A1B119F4240D380236B
:102420001B059F423ED243461B689B4643465B6862
:1024300099460C005B46CE1A002F3DD00023802227
:10244000120597425B41002B2ED1380109F0FAFBAF
:10245000824656442B783370AA68EB68B260F3600A
:102460002B78012B2BD0022B32D0032B39D0082B09
:1024700040D000232B7000220023AA60EB60337849
:10248000012B40D0022B47D0032B4ED0082B55D028
:1024900056465D46C5E09F4828F0A2FA6A46B6E770
:1024A0009B4FC0E79A4FBEE780235B059F4201D355
:1024B00028F05EFA28F04CFA00239A46C9E7AA6889
:1024C000002AD0D1944B954A9548964906F04CFE87
:1024D000AA68002AC9D1944B904A9148934906F0C2
:1024E00043FEAA68002AC2D1914B8C4A8C4891497C
:1024F00006F03AFEAB68002BBBD18F4B874A884869
:102500008E4906F031FEB268002ABBD1824B834A65
:102510008348844906F028FEB268002AB4D1824B71
:102520007E4A7F48814906F01FFEB268002AADD17D
:102530007F4B7A4A7A487F4906F016FEB368002B33
:10254000A6D17D4B754A76487C4906F00DFEAA68F7
:10255000002A71D1704B714A7148724906F004FE2D
:10256000AA68002A6AD1704B6C4A6D486F4906F020
:10257000FBFDAA68002A63D16D4B684A68486D4923
:1025800006F0F2FDAB68002B5CD16B4B634A6448EC
:102590006A4906F0E9FDB268002A5CD15E4B5F4AE9
:1025A0005F48604906F0E0FDB268002A55D15E4BF5
:1025B0005A4A5B485D4906F0D7FDB268002A4ED101
:1025C0005B4B564A56485B4906F0CEFDB368002B7C
:1025D00047D1594B514A5248584906F0C5FDAA689F
:1025E000002A41D14C4B4D4A4D484E4906F0BCFDA6
:1025F000AA68002A3AD14C4B484A49484B4906F050
:10260000B3FDAA68002A33D1494B444A444849499A
:1026100006F0AAFD297828000830FFF7A7F8103542
:102620001036AC422FD02B783370AA68EB68B260BA
:10263000F3602B78012B8AD0022B91D0032B98D0FA
:10264000082B9FD000232B7000220023AA60EB6090
:102650003378012B9FD0022BA6D0032BADD0082BB3
:10266000B4D02B78012BBAD0022BC1D0032BC8D009
:10267000082BCFD1AB68002BCCD12F4B274A284851
:102680002E4906F071FD103685E0A268002A00D0C0
:102690008DE0214B214A2248224906F065FDA268BF
:1026A000002A00D086E0204B1C4A1D481F4906F036
:1026B0005BFDA268002A00D07FE01D4B174A184836
:1026C0001C4906F051FDA368002B79D11A4B134A1F
:1026D00013481A4906F048FDB268002A7AD10E4B19
:1026E0000E4A0F480F4906F03FFDB268002A73D129
:1026F0000D4B0A4A0A480D4906F036FDB268002A19
:102700006CD10B4B054A06480A4906F02DFDC04620
:10271000FFFFFF0714B7051088A30510C0A305101D
:1027200020A00510B44D000030A60510B54D0000E6
:1027300068A60510B64D0000A0A60510B74D000014
:10274000B368002B4CD13B4B3B4A3C483C4906F01C
:102750000BFDA268002A46D13A4B374A37483A491E
:1027600006F002FDA268002A3FD1384B324A3348B6
:10277000374906F0F9FCA268002A38D1354B2E4AB9
:102780002E48354906F0F0FC217820000830FEF78D
:10279000EDFF10341036A14534D023783370A26891
:1027A000E368B260F3602378012B00D16DE7022B60
:1027B00000D174E7032B00D17BE7082B00D182E71F
:1027C0000023237000220023A260E3603378012BF2
:1027D00000D181E7022B88D0032B8FD0082BAFD0FC
:1027E0002378012BB5D0022BBCD0032BC3D0082BF0
:1027F000CAD1A368002BC7D10E4B0F4A0F4810490E
:1028000006F0B2FC434699685B46C91A002B02D019
:10281000584609F027FA434652461A605E603F0167
:1028200057449F6003B0F0BCBB46B246A946A046E1
:10283000F0BDC046A0A60510C0A3051020A005103D
:10284000B74D000088A30510B44D000030A6051058
:10285000B54D000068A60510B64D0000D0B50400C7
:102860000A0041688368994200D16BE013780B70CD
:102870009668D7688E60CF601378012B1AD0022B30
:1028800021D0032B28D0082B2FD000231370002633
:1028900000279660D7600B78012B2FD0022B36D003
:1028A000032B3DD0082B44D063681033636060680D
:1028B0001038D0BD90680028E1D1244B244A254827
:1028C000254906F051FC90680028DAD1234B204AB4
:1028D0002048234906F048FC90680028D3D1214BBA
:1028E0001B4A1C48204906F03FFC9368002BCCD1C2
:1028F0001E4B174A17481E4906F036FC8A68002A04
:10290000CCD1124B124A1348134906F02DFC8A68A9
:10291000002AC5D1114B0E4A0E48114906F024FC7D
:102920008A68002ABED10F4B094A0A480E4906F0B0
:102930001BFC8B68002BB7D10C4B054A05480C4992
:1029400006F012FCFFF74CFDB1E7C04688A3051066
:10295000C0A3051020A00510B44D000030A605103E
:10296000B54D000068A60510B64D0000A0A60510E4
:10297000B74D0000F0B5D6464F464646C0B50600F6
:102980000F0080231B0599421BD2836802689B1AA3
:102990001B11994200D8CDE043689B1A9A46002942
:1029A0001AD000238022120591425B41002B0BD1EB
:1029B000080109F047F981463468736898464D4626
:1029C00077E05F4828F00CF880235B05994201D33B
:1029D00027F0CEFF27F0BCFF00239946ECE7A26862
:1029E000002A71D1574B584A5848594906F0BCFB48
:1029F000A268002A6AD1574B534A5448564906F0F8
:102A0000B3FBA268002A63D1544B4F4A4F48544944
:102A100006F0AAFBA368002B5CD1524B4A4A4B48F4
:102A2000514906F0A1FBAA68002A5CD1454B464AF1
:102A30004648474906F098FBAA68002A55D1454BFD
:102A4000414A4248444906F08FFBAA68002A4ED109
:102A5000424B3D4A3D48424906F086FBAB68002B9D
:102A600047D1404B384A39483F4906F07DFBA268C0
:102A7000002A41D1334B344A3448354906F074FBBF
:102A8000A268002A3AD1334B2F4A3048324906F027
:102A90006BFBA268002A33D1304B2B4A2B483049BC
:102AA00006F062FB217820000830FEF75FFE10344C
:102AB0001035A0452FD023782B70A268E368AA6058
:102AC000EB602378012B8AD0022B91D0032B98D076
:102AD000082B9FD00023237000220023A260E36014
:102AE0002B78012B9FD0022BA6D0032BADD0082B27
:102AF000B4D02378012BBAD0022BC1D0032BC8D07D
:102B0000082BCFD1A368002BCCD1164B0E4A0F480F
:102B1000154906F029FB3068B168091A002801D070
:102B200009F0A0F84B46336053464B4473603F01B5
:102B30004F44B760E0BCBA46B146A846F0BDC046B7
:102B400030B7051088A30510C0A3051020A00510FC
:102B5000B44D000030A60510B54D000068A6051064
:102B6000B64D0000A0A60510B74D0000F0B5DE463A
:102B700057464E464546E0B583B006000D1E00D1CF
:102B80009CE0436804681C1B221191468268D21A9B
:102B90001211914271D9009143680768DF1B3F1100
:102BA000BB4AD21B8A4200D28FE001978F4200D2EB
:102BB0008EE001AA1268BA46924432689B1A1B1131
:102BC0009A4500D286E080231B059A4500D384E015
:102BD0005346002B00D18BE0002380221205514682
:102BE00091425B41002B00D07AE0080109F02AF8FD
:102BF000804644442900BFE00021002945D1A54B6F
:102C0000A54AA648A64906F0AFFA996800293ED120
:102C1000A44BA14AA148A44906F0A6FA9968002944
:102C200037D1A24B9C4A9D48A14906F09DFA9A686B
:102C3000002A30D19F4B984A98489F4906F094FA51
:102C4000996800292AD1934B934A9448944906F0F5
:102C50008BFA9968002923D1924B8F4A8F48924969
:102C600006F082FA996800291CD1904B8A4A8B4859
:102C70008F4906F079FA013D1033002D1DD0002256
:102C80001A709A60D2B2012AB6D0022ABDD0032AA5
:102C9000C4D0082ACBD01A78012AD1D0022AD8D0A1
:102CA000032ADFD0082AE6D19A68002AE3D1814BB3
:102CB000794A7A48804906F057FA736003B0F0BC4D
:102CC000BB46B246A946A046F0BD7C4827F088FE28
:102CD0006A466FE76E4B9A467AE76D4B9A4677E7FE
:102CE00080235B059A4501D327F042FE27F030FE92
:102CF000002398467DE70020002845D1654B664AB1
:102D00006648674906F030FAA06800283ED1654B56
:102D1000614A6248644906F027FAA068002837D162
:102D2000624B5D4A5D48624906F01EFAA268002ABD
:102D300030D1604B584A59485F4906F015FAA068EF
:102D400000282AD1534B544A5448554906F00CFAEE
:102D5000A068002823D1534B4F4A5048524906F0EF
:102D600003FAA06800281CD1504B4B4A4B485049ED
:102D700006F0FAF90139103400291DD00022227022
:102D8000A260D2B2012AB6D0022ABDD0032AC4D092
:102D9000082ACBD02278012AD1D0022AD8D0032AFF
:102DA000DFD0082AE6D1A268002AE3D1414B3A4A93
:102DB0003A48414906F0D8F9346873689B4647465B
:102DC00085E0A268002A00D08DE0324B324A3348B9
:102DD000334906F0C9F9A268002A00D086E0314BD9
:102DE0002D4A2E48304906F0BFF9A268002A00D0CB
:102DF0007FE02E4B284A29482D4906F0B5F9A368F3
:102E0000002B79D12B4B244A24482B4906F0ACF9EE
:102E1000BA68002A7AD11F4B1F4A2048204906F081
:102E2000A3F9BA68002A73D11E4B1B4A1B481E49DE
:102E300006F09AF9BA68002A6CD11C4B164A17485A
:102E40001B4906F091F9BB68002B65D1194B124A5A
:102E50001248194906F088F9A268002A5FD10D4B83
:102E60000D4A0E480E4906F07FF9A268002A58D193
:102E70000C4B094A09480C4906F076F9A268002A69
:102E800051D10A4B044A0548094906F06DF9C0467C
:102E9000FFFFFF0788A30510C0A3051020A00510A1
:102EA000B44D000030A60510B54D000068A6051011
:102EB000B64D0000A0A60510B74D000040B70510A4
:102EC000217820000830FEF751FC10341037A3455C
:102ED00034D023783B70A268E368BA60FB60237843
:102EE000012B00D16DE7022B00D174E7032B00D139
:102EF0007BE7082B00D182E7002323700022002308
:102F0000A260E3603B78012B00D181E7022B88D0DF
:102F1000032B8FD0082B96D02378012B9CD0022B2B
:102F2000A3D0032BAAD0082BCAD1A368002BC7D1EA
:102F30000B4B0C4A0C480D4906F016F93068B16885
:102F4000091A002801D008F08DFE434633604D4435
:102F50002D014544756053461F014744B760ADE6F7
:102F6000A0A60510C0A3051020A00510B74D0000B5
:102F7000F0B5CE46474680B585B004000D00037815
:102F8000002B13D02378022B00D0D3E0A6687368FF
:102F900032689B1A1B119D4252D2A36818682D01FA
:102FA000401905B0C0BCB946B046F0BD023303704D
:102FB0000C2008F047FE060001AB029303900C22A0
:102FC000002108F033FE002333607360B360039B7D
:102FD000002B14D000220392A3602378012B14D07D
:102FE000022B1BD0032B22D0082BCBD1A368002BA4
:102FF000C8D1514B514A5248524906F0B5F8524B8C
:10300000524A4F48524906F0AFF8A268002AE7D169
:10301000504B4A4A4A48504906F0A6F8A268002A8E
:10302000E0D14E4B454A46484D4906F09DF8A2680E
:10303000002AD9D14B4B414A41484B4906F094F8FC
:10304000691C73689B1A1B11994212D816D32378F6
:10305000012B54D0022B5BD0032B62D0082B9CD1C8
:10306000A368002B99D1344B344A3548354906F0D2
:103070007BF8C91A3000FFF779FDE8E709019046AF
:103080008844736899469845E1D0474620E0BA687D
:10309000002A22D12F4B294A29482F4906F064F8EB
:1030A000BA68002A1BD12D4B244A25482C4906F02A
:1030B0005BF8BA68002A14D12A4B204A20482A49D2
:1030C00006F052F8397838000830FEF74FFB103719
:1030D000B94511D03B78012BD9D0022BE0D0032B7E
:1030E000E7D0082BEED1BB68002BEBD1124B134A73
:1030F0001348144906F038F843467360A7E7A268FE
:10310000002AA7D1134B0D4A0D48134906F02CF89D
:10311000A268002AA0D1114B084A0948104906F0BC
:1031200023F8A268002A99D10E4B044A04480E499C
:1031300006F01AF846F01EFBA0A60510C0A3051065
:1031400020A00510B74D0000A8A905105CB7051018
:10315000974C000088A30510B44D000030A6051060
:10316000B54D000068A60510B64D0000F0B5CE467E
:10317000474680B583B0070088461500382008F020
:1031800061FD040006001036183020612B6808220B
:103190009146A9444B4536D02361AB68B3606B6858
:1031A00073604B462B6000236B602B723200183229
:1031B00033763362DBB2012B2AD0022B31D0032BC2
:1031C00038D0082B3FD0337E012B45D0022B4CD07A
:1031D000032B53D0082B5AD02200103241466846A8
:1031E000FEF7C4F9019A002A5AD0009923004046FC
:1031F000FEF720FA386001233B71380003B0C0BCF1
:10320000B946B046F0BD0832494608F015FDC6E79C
:1032100091680029D1D1464B464A4748474905F0B5
:10322000A3FF91680029CAD1454B424A424845490B
:1032300005F09AFF91680029C3D1434B3D4A3E48AF
:10324000424905F091FF9368002BBCD1404B394AAD
:103250003948404905F088FF91680029B6D1344BC0
:10326000344A3548354905F07FFF91680029AFD1D0
:10327000334B304A3048334905F076FF91680029D6
:10328000A8D1314B2B4A2C48304905F06DFF93688B
:10329000002BA1D12E4B274A27482E4905F064FF69
:1032A000200028300378012B1DD0022B24D0032BC3
:1032B0002BD0082B32D001780830FEF757FA2200C5
:1032C0001032206923001833984203D091680131ED
:1032D00008F0C8FC3821200008F0C4FC009B3B60CB
:1032E00000233B7189E78268002ADED1104B114A26
:1032F0001148124905F038FF8268002AD7D1104BD7
:103300000C4A0D480F4905F02FFF8268002AD0D1E2
:103310000D4B084A08480D4905F026FF8368002B2D
:10332000C9D10B4B034A04480A4905F01DFFC046AA
:1033300088A30510C0A3051020A00510B44D0000FF
:1033400030A60510B54D000068A60510B64D00006A
:10335000A0A60510B74D000030B58BB004000D00DD
:1033600005AB0393002923D008004AF063FA2A181A
:103370000023290003A8FDF7F3FE2378002B19D0C2
:103380002378012B63D1A1680023099309AB03AA19
:1033900001A8FFF7EBFE019C2834039805AB984287
:1033A00003D00599013108F05DFC20000BB030BD61
:1033B0000122DDE701332370182008F043FC0500EB
:1033C0006B46019302901822002108F02FFC002385
:1033D0002B71AB602A1DEA602A616B61029B002B96
:1033E00014D000220292A3602378012B14D0022B68
:1033F0001BD0032B22D0082BC2D1A368002BBFD136
:10340000144B154A1548164905F0AEFE154B164AE1
:103410001248164905F0A8FEA268002AE7D1144B0D
:103420000D4A0E48134905F09FFEA268002AE0D11C
:10343000114B094A0948114905F096FEA268002A75
:10344000D9D10F4B044A05480E4905F08DFE46F0D0
:1034500091F9C046A0A60510C0A3051020A0051034
:10346000B74D0000A8A9051048BA0510974C0000F8
:1034700088A30510B44D000030A60510B54D00001E
:1034800068A60510B64D0000F0B5D6464F46464634
:10349000C0B582B00700884615001E00382008F02D
:1034A000D1FB040010239A468244183020612B6817
:1034B00008229146A9444B4542D02361AB6852464D
:1034C00093606B68524653604B462B6000236B60E1
:1034D0002B722200283233781370B068F168906044
:1034E000D160012B31D0022B38D0032B3FD0082BD9
:1034F00046D00023337000200021B060F1601378C3
:10350000012B46D0022B4DD0032B54D0082B5BD07F
:103510002200103241466846FEF728F8019A002A38
:103520005BD0009923004046FEF784F83860012301
:103530003B71380002B0E0BCBA46B146A846F0BDC7
:103540000832494608F078FBBBE7B1680029CAD1C8
:10355000454B464A4648474905F006FEB1680029F2
:10356000C3D1454B414A4248444905F0FDFDB1688D
:103570000029BCD1424B3D4A3D48424905F0F4FD8B
:10358000B368002BB5D1404B384A39483F4905F064
:10359000EBFD91680029B5D1334B344A34483549A5
:1035A00005F0E2FD91680029AED1334B2F4A304837
:1035B000324905F0D9FD91680029A7D1304B2B4A3B
:1035C0002B48304905F0D0FD9368002BA0D12E4B3D
:1035D000264A27482D4905F0C7FD200028300378EA
:1035E000012B1DD0022B24D0032B2BD0082B32D043
:1035F00001780830FEF7BAF8220010322069230063
:103600001833984203D09168013108F02BFB382120
:10361000200008F027FB009B3B6000233B7188E7FC
:103620008268002ADED1104B104A1148114905F07A
:103630009BFD8268002AD7D10F4B0C4A0C480F49DA
:1036400005F092FD8268002AD0D10D4B074A084848
:103650000C4905F089FD8368002BC9D10A4B034A48
:1036600003480A4905F080FD88A30510C0A3051092
:1036700020A00510B44D000030A60510B54D000087
:1036800068A60510B64D0000A0A60510B74D0000B5
:10369000F0B50200081AC01083001B181C011B198A
:1036A0001C021B191C041C1964002418A41069E0D6
:1036B00013006CE001280ED0022806D0002800D0AC
:1036C000012002280AD0002365E09D6868682D6803
:1036D000401B0011F5E798684069F2E79B681B689A
:1036E0001B78032B01D0002355E0023B53E005007B
:1036F00059E0012E0ED0022E06D0002E00D0012659
:10370000022E0AD0002352E0AF687E683F68F61BA5
:103710003611F5E7AE687669F2E7AD682D682D7869
:10372000032D44D0002342E0050048E0012E0ED0D6
:10373000022E06D0002E00D00126022E0AD0002331
:1037400041E0AF687E683F68F61B3611F5E7AE686A
:103750007669F2E7AD682D682D78032D33D000230C
:1037600031E0050037E0012E40D0022E38D0002E87
:1037700000D00126022E3CD00023002B00D1D2E045
:103780006032013C002C3BDD1369002B90D018788F
:1037900002288FD00023002B00D1C3E01000183086
:1037A0000569002DA3D02E78022EA2D00023002B75
:1037B00000D1B8E0100030300569002DB4D02E786B
:1037C000022EB3D00023002B00D1ACE01000483013
:1037D0000569002DC5D02E78022EC4D00023CCE779
:1037E000AF687E683F68F61B3611C3E7AE6876693E
:1037F000C0E7AD682D682D78032DBED00023BCE74F
:10380000881AC01083001B181C011B191C021B19ED
:103810001C041B195B001B18022B10D0032B03D0B8
:10382000012B17D008007EE01369002B1DD01878FB
:1038300002281CD00023002B00D175E01832136938
:10384000002B31D01878022830D00023002B00D173
:103850006CE018321369002B45D01878022844D048
:103860000023002B64D008005DE01300DFE701288F
:103870000ED0022806D0002800D0012002280AD04D
:103880000023D8E79C6860682468001B0011F5E7F6
:1038900098684069F2E79B681B681B78032B01D08E
:1038A0000023C8E7023BC6E71300CBE701280ED090
:1038B000022806D0002800D0012002280AD00023C8
:1038C000C4E79C6860682468001B0011F5E79868ED
:1038D0004069F2E79B681B681B78032B01D000232B
:1038E000B4E7023BB2E71300B7E701280ED0022885
:1038F00006D0002800D0012002280AD00023B0E71B
:103900009C6860682468001B0011F5E798684069AE
:10391000F2E79B681B681B78032B01D00023A0E70C
:10392000023B9EE71000F0BD1000FCE71000FAE734
:103930001000F8E770B504000D00142008F082F9BB
:1039400025606060200070BD70470000F0B5C6467D
:1039500000B598B0804614001D005E007608012274
:1039600052427E4B2000310007F097FA002825D103
:1039700001225242794B2000310007F089FA0028D9
:103980001CD1002200232000290007F081FA002822
:103990001AD020002900FFF7D7FF0C0D00250200E8
:1039A00009030B0B002C15D1149215936C49169139
:1039B0001A4320D1002D18D001201DE0694B6A4A1E
:1039C0006A486B4905F0D0FB6A4B674A67486A4909
:1039D00005F0CAFB00208021490380185941674E39
:1039E000A619149015911696E2E7002D01D1012C2D
:1039F000E2D8002000E00020149A159B16001F005A
:103A0000B6185F4101240025A4197D4116998C4602
:103A1000013910941195129100281CD0940F99002F
:103A20002143900001225242D31780185941634626
:103A3000023B0C900D910E93102210A9684608F0DD
:103A4000FBF8009B019A134315D14D4B4D4A474853
:103A50004D4905F089FB01225242D317B6185F4148
:103A60000C960D970E91E7E792185B410092019337
:103A7000029B013B0293009A019B002BF4DA102277
:103A8000694608A808F0D8F80A9D0E9B5B1B27D44E
:103A90000C9C0D9E1A00203A28D4210091400A0067
:103AA000200098401900203928D41700CF40390051
:103AB0001700DF408C4229D1BE4227D104900592E5
:103AC0000695102214A9684608F0B6F8009B019AE2
:103AD000134328D12A4B2B4A24482B4905F044FB99
:103AE0002A4B2B4A21482B4905F03EFB2022D21AB3
:103AF0002100D14032009A400A43D1E72021C91A5F
:103B000017008F400100D9403943D1E7224B204AAA
:103B10001648224905F028FB92185B410092019358
:103B2000029B013B0293009A019B002BF4DA1022C6
:103B30006946404608F080F840461030102204A93B
:103B400008F07AF840462030102208A908F074F8EE
:103B5000404618B080BCB846F0BDC046FFFFEF7FBE
:103B6000CEFBFFFF98BD0510B0BD051020A00510CD
:103B70007442000054BE051075420000CDFBFFFFEB
:103B800060BE05106CBE05104A42000020BF051043
:103B90002CBF05105D420000F0BF05105E42000022
:103BA000F0B5DE4657464E464546E0B5CFB01090DC
:103BB00011919046589D599E74006408012252420A
:103BC000E94B2800210007F068F9002800D09BE1AC
:103BD00001225242E44B2800210007F059F9002845
:103BE00000D091E1002200232800310007F050F9B5
:103BF000002800D18EE12A00330042A8FFF7A6FE7C
:103C0000102246A91AA808F017F8102242A91EA8E7
:103C100008F012F810224AA922A808F00DF8249CF6
:103C20001C9B9C4200D07BE1209B9C4200D07DE10C
:103C3000CE4B9C4200DA7FE1CD4B9C4200DD81E11E
:103C40003D225242121B13019B18DB009B18D90026
:103C50005B189B019B18D9178903890BCB189B1400
:103C6000D1178A1AD20F9B1819003431FF31C817A7
:103C7000072202405218D210BE498B4200DA67E197
:103C80004E2A00D96AE1BC4912018918102226A8DF
:103C900007F0D2FF289BE41823007C3300DA95E17B
:103CA0005F3400DB98E1269A279B28998B462A925D
:103CB0002B932C911E9D1F9C2A9B9A462B9B9946C9
:103CC000524600232800002107F0D8FE0C914A46F6
:103CD00000232800002107F0D1FE06000F00524605
:103CE00000232000002107F0C9FE169014914A46D7
:103CF00000232000002107F0C1FE129013910C9CBC
:103D00000025002200230C920D930C9600260D96A0
:103D10000E920F930E970F9616980021149A002377
:103D20000C9E0D9FA4197D41001969418024240631
:103D3000002500196941129C139D12196B410E9DBB
:103D40000F9E521973410C00002512196B412099E6
:103D5000594440312E922F9330911A9D1B9C52460C
:103D600000232800002107F089FE0F004A460023A7
:103D70002800002107F082FE0E9016915246002383
:103D80002000002107F07AFE149017914A46002384
:103D90002000002107F072FE1290139100230024EE
:103DA0000C930D940C9700260D960E9C0025002276
:103DB00000230E920F93169B0E930F9614980021DA
:103DC000179A00230C9E0D9FA4197D41001969418B
:103DD00080242406002500196941129C139D1219A4
:103DE0006B410E9D0F9E521973410C000025121954
:103DF0006B4111001A001C9B5B44403312911392DB
:103E00003291339216933493229D239C5246002381
:103E10002800002107F032FE0F004A460023280048
:103E2000002107F02BFE0E90179152460023200030
:103E3000002107F023FE189019914A460023200024
:103E4000002107F01BFE14901591002300240C9311
:103E50000D940C9700260D960E9C00250022002341
:103E60000E920F93179A0E920F9618980021199A96
:103E700000230C9E0D9FA4197D41001969418024E7
:103E80002406002500196941149C159D12196B41E7
:103E90000E9C0F9D12196B410C000025A4185D416A
:103EA000249E5E444036369437953896012200238E
:103EB00012981399801859413A903B9116993C9168
:103EC000A41A9D413E943F954096299B5B424246F1
:103ED000136008A810223EA907F0AEFE04A8102225
:103EE0002EA907F0A9FE10223AA9684607F0A4FE01
:103EF000424611991098FCF7CDFA4FB0F0BCBB4682
:103F0000B246A946A046F0BD1C4B1D4A1D481E499D
:103F100005F02AF91D4B1A4A1A481D4905F024F9E3
:103F20001C4B1D4A17481D4905F01EF91C4B1A4A27
:103F300014481C4905F018F91B4B1C4A11481C4930
:103F400005F012F91B4B194A0E481B4905F00CF9F4
:103F50001A4B164A0B481A4905F006F9194B134A31
:103F60000848194905F000F9FFFFEF7F24FAFFFF29
:103F7000DC050000C6FEFFFF08ED051098BD05102A
:103F800014C0051020A005103245000054BE0510D5
:103F90003345000088C00510A0C00510F44400009F
:103FA00090C10510F5440000A0C10510ACC105107A
:103FB0008D43000044C205108E43000050C205101E
:103FC000934300005CC2051094430000054B064A71
:103FD0000648074905F0C8F8064B034A0348064956
:103FE00005F0C2F894C20510ACC1051020A0051060
:103FF00097430000B0C2051098430000F0B587B0A9
:1040000004000E0003921D005F007F08012252424F
:10401000324B0398390006F040FF002839D10122C5
:1040200052422E4B0398390006F032FF002830D15F
:10403000002D06DA80231B069C4665442D23237041
:104040000134002200230398290006F003FF002812
:1040500025D1361B102E29DD002305930493039AE6
:104060002B000092019304AA05A92000FFF798FDF8
:104070000599112920DC152E24DD162E28DD0423B8
:10408000049A0F2000905B422000FCF7B7FD07B0B8
:10409000F0BD134B134A1448144905F065F830235A
:1040A00023702E226270E01CA370F0E7104B0D4AC3
:1040B0000D48104905F058F80F4B0A4A0A480F49B5
:1040C00005F052F80E4B074A07480E4905F04CF828
:1040D0000D4B044A04480D4905F046F8FFFFEF7FF9
:1040E00098BD0510CCC2051020A00510E1450000C8
:1040F00038C30510FA45000078C3051004460000D7
:10410000ACC305100C46000000C405100D460000AD
:10411000F0B5DE4657464E464546E0B585B004004C
:104120000F001D000978092901D900F0FEFF890060
:10413000DD4841588F46BB685B69002B1DD0002AC3
:1041400000D1B2E02068D94903685B680222984731
:104150000F9B0E9A94466344984694239B00E31861
:104160005968414510D3BB68DE68002399462B008F
:104170004D46B946474698463CE02068CC4903681E
:104180005B6802229847F2E1490094239B00E01803
:10419000202231F071FBE6E7206894239B00E15870
:1041A00003685B683A009847206803681B6822210F
:1041B00098473100103142462000FCF7FFFF20688D
:1041C000BC4903685B680322984731002831019796
:1041D0000E9B0093434601222000FFF799FF2068C1
:1041E000B54903685B68022298470135300015F035
:1041F0009BFD06004B469A685369013BAB42CBD806
:104200004546B8464F460432B146B24202D030006D
:10421000012308E0A94BAA4AAA48AB4904F0A4FF2D
:1042200015F082FD33005E1E002BF9D1BB6804330C
:10423000834234D120689426B600A15903685B6894
:1042400042469847206803681B68222198474946E0
:1042500010312A002000FCF7B1FF2068954903685F
:104260005B680322984749462831434601930E9BD9
:1042700000932B0001222000FFF74AFF206803680B
:104280001B680A2198472068A15903685B680F9A48
:104290009847206803681B687D21984767E18B4B2E
:1042A000874A88488A4904F05FFF206803681B68D2
:1042B0007B219847BB68DE68002398462B00454663
:1042C000B8461F0025E0206803681B682221984734
:1042D000310010313A002000FCF770FF20687D4962
:1042E00003685B6802229847310028310F9B0193D5
:1042F0000E9B00933B0000222000FFF709FF20687F
:1043000003681B682C2198470135300015F00CFD1F
:10431000060043469A685369013BAB42D3D83D003F
:1043200047460432B046B24202D03000012308E0D2
:10433000624B634A6348684904F016FF15F0F4FCC9
:1043400033005E1E002BF9D1BB680433834221D1B8
:10435000206803681B6822219847414610312A00D3
:104360002000FCF72BFF20685A4903685B68022293
:104370009847414628310F9B01930E9B00932B00D9
:1043800000222000FFF7C4FE206803681B687D211F
:104390009847ECE04D4B4A4A4A48504904F0E4FE45
:1043A000BB6819685B68994218D0002A74D02068ED
:1043B0004B4903685B68022298470F9B0E9A94460C
:1043C0006344984694239B00E318596841450CD3F5
:1043D000BB681E682B004546984626E02068414988
:1043E00003685B6802229847C1E0490094239B0060
:1043F000E018202231F040FAEAE7206894239B007D
:10440000E15803685B682A00984701950E9B00936A
:104410004346012231002000FFF77AFE206826493A
:1044200003685B68022298471036BA685368103BED
:10443000B342E2D14346A8461D0011685368994231
:1044400024D020689426B600A15903685B684246D0
:104450009847BB6859681039434601930E9B0093F7
:104460002B0001222000FFF753FE206803681B6821
:104470000A2198472068A15903685B680F9A9847FA
:10448000206803681B685D21984770E0164B0C4A52
:104490000C48164904F068FE206803681B685B211D
:1044A0009847BB681E6833E028CC051048C4051047
:1044B00044C40510D0C705104CC4051050C40510E5
:1044C00070C4051020A005109546000038C50510E1
:1044D0009646000064C50510B1460000B2460000D3
:1044E0006CC5051068C5051070C50510DB460000D9
:1044F0000F9B01930E9B00932B00002231002000A4
:10450000FFF706FE206803681B682C2198471036C9
:10451000BA685368103BB342EAD1116853689942B4
:1045200010D0516810390F9B01930E9B00932B0004
:1045300000222000FFF7ECFD206803681B685D2166
:10454000984714E0B84BB94AB948BA4904F00CFE90
:10455000206803681B6822219847B9682A00200058
:10456000FCF72CFE206803681B682221984705B0E1
:10457000F0BCBB46B246A946A046F0BD002A00D119
:1045800035E22068AC4903685B68022298470F9ABD
:104590000E9B9C466244039294239B00E318596847
:1045A000914217D3206894239B00E15803685B680D
:1045B000039A98472068A14903685B680A229847D4
:1045C000BB6819685A68914200D1AFE00A00A24660
:1045D000BB4689E0490094239B00E018202231F07B
:1045E0004BF9DFE7082353449946040000260021D5
:1045F00001231D0000290BD000290FD000291BD05A
:10460000002924D08E4A002306F0C0F90435F1E7D2
:10461000002926D10928EFD8A84607E0002901D1B2
:104620006328EBD8A84601239C46E04443463E2B32
:1046300019D84F46474434E0002903D1FA239B00A0
:104640009842DDD2A84602239C46E044EEE70029CA
:1046500002D17C4B9842D5D8A84603239C46E0441F
:10466000E4E7A846E2E7784B784A7148784904F0D5
:104670007BFD642200232000310006F087F915003D
:10468000642200232000310006F080F904000E00AF
:104690006A00704BD21851787B1E19701378023F54
:1046A0003B70002EE5D101D1632CE2D8002E02D15F
:1046B0002CD1092C2AD96400664BE41862787B1E41
:1046C0001A702378023F3B705346186803685B6892
:1046D000424649469847534618685F4903685B68F5
:1046E00002229847029A01325B4699684B68013B67
:1046F00002929A420ED01078002800D072E75346FA
:10470000186803681B6830219847E4E73034013F9C
:104710003C70D9E754465F464B68013B1878002847
:1047200036D1206803681B683021984720684B49C0
:1047300003685B6803229847206894239B00E15834
:1047400003685B68039A98472068454903685B687B
:104750000B229847BB681A7E002A00D0C3E020686D
:10476000404903685B6804229847206803681B6817
:104770000A219847206894239B00E15803685B68EE
:104780000F9A9847206803681B687D219847EEE6DA
:1047900008239B46D344804600260021073B1D008A
:1047A00000290BD000290FD000291FD0002928D0C4
:1047B000234A002306F0EAF80435F1E700292AD15C
:1047C0000928EFD8AA4607E0002901D16328EBD8D1
:1047D000AA4601239C46E24453463E2B1DD8D946A7
:1047E000D1444546A0464C46B94655E0002903D180
:1047F000FA239B009842D9D2AA4602239C46E2445F
:10480000EAE7002902D10F4B9842D1D8AA460323E8
:104810009C46E244E0E7AA46DEE70B4B0B4A04481D
:104820000B4904F0A1FCC04670C5051070C405100A
:1048300020A00510F046000048C405108CC50510E6
:10484000102700000F27000098C50510BCC50510F3
:10485000FB48000040EC0510C0C70510C4C7051098
:10486000C8C70510E4C905106422002328003100E0
:1048700006F08CF81700642200232800310006F0AF
:1048800085F805000E007A00B94BD2185178631EE6
:1048900019701378023C2370002EE5D101D1632DED
:1048A000E2D84F46A1464446A846002E02D114D174
:1048B000092D12D943465B00AD4A9B1859784A46E8
:1048C000013A11701A784B46023B1A70206803684F
:1048D0005B6852465946984728E7434630334A4674
:1048E000013A1370F2E71E695D6933002B4305D16D
:1048F000206803681B683021984736E708239846EC
:10490000A04430002900012700290BD000290ED037
:1049100000291AD0002920D0964A002306F036F844
:104920000437F1E7002907D10928EFD804E000296E
:1049300001D16328ECD801373E2F15D8B946C144C0
:104940003B004F46A24699462CE0002903D1FA23AA
:104950009B009842DED20237EEE7002902D1864B57
:104960009842D9D80337E7E7844B854A854886497A
:1049700004F0FAFB642200233000290006F006F858
:104980001400642200233000290005F0FFFF060018
:104990000D0062007D4BD21851787B1E1970137880
:1049A000023F3B70002DE5D101D1632EE2D84B468A
:1049B000B94654461F00002D02D113D1092E11D93A
:1049C0007600724BF61872784B46013B1A703278BB
:1049D0004B46023B1A70206803685B683A00414608
:1049E0009847C2E630364B46013B1E70F3E720681D
:1049F000674903685B680A229847BB6819685A6868
:104A0000914200D1A2E00A00A246BB467CE0082306
:104A100053449946040000260021012398460029AA
:104A20000DD0002910D000291BD0002923D0514AD5
:104A3000002305F0ABFF04239C46E044EFE7002988
:104A400009D10928EDD806E0002901D16328EAD868
:104A500001239C46E04443463E2B15D84F4647442D
:104A600030E0002903D1FA239B009842DDD20223D3
:104A70009C46E044EFE7002902D13F4B9842D6D84C
:104A800003239C46E044E6E73C4B424A3D483E490E
:104A900004F06AFB642200232000310005F076FF59
:104AA0001500642200232000310005F06FFF040090
:104AB0000E006D002E4BED186A787B1E1A702B7855
:104AC000023F3B70002EE5D101D1632CE2D8002ECD
:104AD00002D12BD1092C29D96400254BE418627826
:104AE0007B1E1A702378023F3B7053461868036898
:104AF0005B684246494698475346186803681B68F6
:104B00002C219847029A01325B4699684B68013B19
:104B100002929A420ED01078002800D077E75346D0
:104B2000186803681B6830219847E5E73034013F77
:104B30003C70DAE754465F464B68013B1878002822
:104B40002ED1206803681B683021984720681249DD
:104B500003685B680C229847BB681A7E002A00D065
:104B6000B1E020680D4903685B6805229847FEE4C0
:104B700040EC0510102700000F27000098C5051015
:104B8000D4C7051020A00510FB48000078EB0510E5
:104B9000ECC90510BCC50510F8C9051008CA0510F8
:104BA00008239946D144060000250021073B1C003C
:104BB000D04600290BD0002911D0002923D000298C
:104BC0002ED0BA4A002305F0E1FE0434F1E70029B3
:104BD00032D10928EFD84346A0461C0009E000293D
:104BE00001D16328E9D84346A0461C0001239C4616
:104BF000E04443463E2B23D8CA46C24423005446D1
:104C0000BB469A463AE0002903D1FA239B0098421A
:104C1000D5D24346A0461C0002239C46E044E8E768
:104C2000002902D1A24B9842CBD84346A0461C0093
:104C300003239C46E044DCE74346A0461C00D8E73B
:104C40009C4B9D4A9D489E4904F08EFA64220023A5
:104C50003000290005F09AFE17006422002330007E
:104C6000290005F093FE06000D007A00954BD2183E
:104C70005178631E19701378023C2370002DE5D122
:104C800001D1632EE2D85346A2465F461C00002D98
:104C900002D113D1092E11D976008A4BF6187278F9
:104CA0005346013B1A7032785346023B1A70206813
:104CB00003685B6842464946984747E730365346A3
:104CC000013B1E70F3E71E695D6933002B430AD177
:104CD000206803681B6830219847206803681B68B8
:104CE0007D21984743E408239846A04430002900DA
:104CF000012700290BD000290ED000291AD0002945
:104D000020D06A4A002305F041FE0437F1E700296C
:104D100007D10928EFD804E0002901D16328ECD895
:104D200001373E2F15D8B946C1443B004F46A24635
:104D300099462CE0002903D1FA239B009842DED249
:104D40000237EEE7002902D1594B9842D9D80337F0
:104D5000E7E7584B5C4A5948594904F005FA642280
:104D600000233000290005F011FE14006422002306
:104D70003000290005F00AFE06000D006200534BCA
:104D8000D21851787B1E19701378023F3B70002DAA
:104D9000E5D101D1632EE2D84B46B94654461F00F7
:104DA000002D02D113D1092E11D97600474BF618E8
:104DB00072784B46013B1A7032784B46023B1A70B0
:104DC000206803685B683A004146984785E73036BB
:104DD0004B46013B1E70F3E73B7A002B07D020685F
:104DE0003B4903685B6804229847FFF7C0FB2068D3
:104DF000384903685B6805229847FFF7B8FBB86835
:104E0000F96803000B4315D008239846A0440029F5
:104E100017DB06000F000125002964D0002967D0A8
:104E200000296BD0002971D0204A002305F0AEFD87
:104E30000435F1E7206803681B6830219847FFF7C5
:104E400096FB2533237202000B00002756429F4138
:104E500030003900012500290BD000290ED000298F
:104E60001BD0002938D0114A002305F08FFD0435EE
:104E7000F1E7002907D10928EFD804E0002901D182
:104E80006328ECD8013501353E2D46D8A946C144EA
:104E90004B46A946A2461D005DE0002903D1FA2336
:104EA0009B009842DDD20235EDE7C0461027000096
:104EB0000F27000098C50510BCC5051020A00510DF
:104EC000FB48000040EC0510D4C7051078EB051036
:104ED00010CA051014A80510002902D1964B98425B
:104EE000C1D80335CFE70029CED1092896D8CBE722
:104EF000002901D1632893D80135C5E7002903D1E2
:104F0000FA239B0098428DD20235BDE7002902D1D9
:104F1000894B984288D80335B6E7884B884A894838
:104F2000894904F021F9642200233000390005F09A
:104F30002DFD1400642200233000390005F026FD09
:104F400006000F006200814BD21851786B1E197059
:104F50001378023D2B70002FE5D101D1632EE2D8EA
:104F60002B004D4654469946002F02D114D1092EEC
:104F700012D97600754BF61872784B46013B1A70C1
:104F800032784B46023B1A70206803685B682A003F
:104F900041469847FFF7EBFA30364B46013B1E700F
:104FA000F2E7BE68FD6833002B4306D12068036832
:104FB0001B6830219847FFF7DAFA08239846A04487
:104FC00030002900012738E0002907D1092836D808
:104FD00004E0002901D1632833D801373E2F3AD8A5
:104FE000BA46C244B9465746A246002D39D064227B
:104FF00000233000290005F0C9FC140064220023BE
:105000003000290005F0C2FC06000D006200504B84
:10501000D21851787B1E19701378023F3B70E4E779
:10502000002903D1FA239B0098420CD20237D5E71E
:10503000484A002305F0AAFC04370029C4D00029FF
:10504000C7D00029ECD00029F2D102D13A4B9842C6
:10505000EED80337C2E7394B3F4A3A483A4904F0A1
:1050600083F8002D01D1632EC1D85446BA464F466D
:10507000002D02D114D1092E12D97600344BF61826
:1050800072785346013B1A7032785346023B1A70CD
:10509000206803685B683A0041469847FFF767FA63
:1050A00030365346013B1E70F2E7BE68FF687D0054
:1050B0006D0801225242294B3000290005F0EDFE17
:1050C000002808D101225242244B3000290005F06B
:1050D000DFFE002807D02068214903685B680422AE
:1050E0009847FFF744FA250008352100483132007F
:1050F0003B002800FEF782FF02002068521B036875
:105100005B6829009847FFF732FA20681549036861
:105110005B680B229847FFF72AFA2068104903685A
:105120005B6804229847FFF722FA0F4B0F4A0548A5
:105130000F4904F019F8C0460F27000098C5051064
:1051400018CA051020A00510FB480000B0EA0510A1
:1051500078EB051010270000D4C70510FFFFEF7F84
:10516000E4C905101CCC051014A8051070C4051066
:1051700076470000F0B5D6464F464646C0B5724C5D
:10518000A5440500884692461E00B0AB1B789946A0
:10519000030008330360002747600772A69703A93E
:1051A00004A8FEF7C7FB059C684B236001236360DE
:1051B000A360674B2360674BE360674BE360256147
:1051C0000597A7940C34A694A3940023A493A79ABC
:1051D000A793A492A693A194131EA29202D0526800
:1051E00001325A60A19B069300230793A29AA293CF
:1051F0000792A1934022002108A806F017FD45F070
:10520000BFFB18904368002B00D18FE0197806AAE5
:105210004C23D1540368002B00D189E01A784D2328
:1052200069461827C919CA548024A4002200002105
:105230006620684406F0FAFC484B6A46D219D654F8
:1052400002339CAA6946C919CA50320021009AA8A3
:1052500030F0EEF99A239B006A46D219B199D150E9
:10526000A29C002C11D06368013B6360002B0CD121
:1052700023689B6820009847A368013BA360002B2C
:1052800003D12368DB6820009847A49C002C11D030
:105290006368013B6360002B0CD123689B6820008E
:1052A0009847A368013BA360002B03D12368DB6808
:1052B000200098475346002B3CDB002301935346C4
:1052C00000934B460122414606A8FEF721FF942396
:1052D0009B00694618228918C8589CAB984207D091
:1052E00096239B0069468A18D158013106F0BAFC12
:1052F000079C002C11D06368013B6360002B0CD12C
:1053000023689B6820009847A368013BA360002B9B
:1053100003D12368DB68200098472800A8239B005E
:105320009D44E0BCBA46B146A846F0BD00216EE7F8
:10533000002274E70023019300934B46002241466C
:1053400006A8FEF7E5FEC2E760FDFFFFC0E8051016
:105350000CE90510DCE80510F4E805104E02000029
:1053600070477047F0B5C64600B584B005002020F0
:1053700006F068FC040003AB0193029069682A6898
:105380008E1A0023036043608360914229D0002E6F
:1053900025DB300006F056FC206060608019A060BC
:1053A00028686B6898462768FFF7DBFF06004046D1
:1053B000FFF7D7FF831B9846864214D147446760A6
:1053C0002A696B69226163612B7E2376029800282B
:1053D0000FD00023029304B080BCB846F0BD25F086
:1053E000B7FA0020D8E71A003100380046F09AFDDD
:1053F000E4E7034B034A0448044903F0B5FEC04602
:10540000A8A9051050CC051020A00510974C00004D
:10541000F0B5C64600B584B004000B7803700026D2
:1054200000278660C7600A78012A0CD0022A13D0B0
:10543000032A1AD0082A21D0082B00D9CBE09B00E0
:10544000884AD3589F4688680028EFD1864B874A00
:105450008748884903F088FE88680028E8D1864B91
:10546000824A8348854903F07FFE88680028E1D19D
:10547000834B7E4A7E48834903F076FE8A68002A81
:10548000DAD1814B794A7A48804903F06DFE8E6803
:10549000182006F0D7FB05006B460293039000230B
:1054A00003718360021DC26002614361B368002B17
:1054B00013D00190B16801AB01F042FF03001A0064
:1054C0009B68002BFBD1EA6003001A00DB68002B0D
:1054D000FBD12A6173696B61A860039B002B05D027
:1054E00000220392A3600023E36074E0684B694AE2
:1054F0005F48694903F038FE8B6898460C2006F037
:10550000A1FB070001AB0293039043465D681B6853
:10551000ED1A2D110023036043608360002D11D02C
:10552000802109058D425B41002B03D1280106F043
:1055300089FB08E080235B059D4201D325F018FA22
:1055400025F006FA0020386078602D014019B86017
:105550003E6843461D685B68984605E029003000B8
:10556000FFF756FF103510364545F7D17E60039B97
:10557000002B05D000220392A3600023E3602AE001
:10558000434B464A3A48444903F0EEFD8D681820E3
:1055900006F058FB01AB029303900300083303604D
:1055A00029686A688A180023FBF7B2FF039B002B67
:1055B00005D000220392A3600023E3600BE0344B8C
:1055C000374A2B48344903F0CFFD097AFF20834343
:1055D0000B43A360E2602378012B1FD0022B26D05F
:1055E000032B2DD0082B34D0200004B080BCB8464B
:1055F000F0BD8A68CB68A260E360ECE78A68CB689C
:10560000A260E360E7E78A68CB68A260E360E2E754
:105610008868FFF7A7FEA060E560DCE7A268002AC3
:10562000DCD1114B114A1248124903F09DFDA268CA
:10563000002AD5D1104B0D4A0D48104903F094FDB6
:10564000A268002ACED10E4B084A09480D4903F042
:105650008BFDA368002BC7D10B4B044A04480B49B0
:1056600003F082FDE4DE051088A30510C0A3051039
:1056700020A00510B44D000030A60510B54D000067
:1056800068A60510B64D0000A0A60510B74D000095
:10569000A8A905109CCF0510974C000058D60510FE
:1056A000F0DB0510F0B5CE46474680B58BB007005D
:1056B000009101921E0012AB1B78984600230370E4
:1056C000002200238260C3600C00019B5D00ED1886
:1056D000ED004D19002329002000FDF7D9FF281AFD
:1056E00043425841C0B2002E05D14346022B22D07E
:1056F0004346012B21D0002800D1D9E001233B7083
:10570000182006F09FFA060003AB049305901822B8
:10571000002106F08BFA00233371B360321DF26072
:1057200032617361059B002B0DD000220592BB6096
:105730000023FB6097E03000DAE74340DBB2002B48
:10574000D9D044F017F8B34BB34AB448B44903F086
:105750000BFD2200217804AB1970A068E168069067
:1057600007912378012B1ED0022B25D0032B2CD0A0
:10577000082B33D000231370002000219060D160EB
:1057800004AB1B78012B32D0022B39D0032B40D035
:10579000082B72D1069B002B6FD1A24BA24A9F48C7
:1057A000A24903F0E1FCA1680029DDD1A04B9E4A8B
:1057B0009A48A04903F0D8FC91680029D6D19E4BA5
:1057C000994A96489D4903F0CFFC91680029CFD1B2
:1057D0009B4B954A91489B4903F0C6FC9368002B6C
:1057E000C8D1904B904A8D48904903F0BDFC069A71
:1057F000002AC9D18E4B8C4A88488E4903F0B4FCEC
:10580000069A002AC2D18C4B874A84488B4903F000
:10581000ABFC069A002ABBD1894B834A7F48894951
:1058200003F0A2FC069A002A33D1814B7E4A7B48C2
:10583000804903F099FC069A002A2CD17E4B7A4AC3
:1058400076487E4903F090FC069A002A25D17C4BCD
:10585000754A72487B4903F087FC04AB197806A8A7
:10586000FBF784FF1834AC4200D1F7E0216900292E
:1058700000D16EE704A8FFF7CBFDB96804AEB368AA
:105880001B689A68103308A8FDF7FEFD3378012BDA
:10589000C8D0022BCFD0032BD6D0082BDDD1069B4E
:1058A000002BDAD15F4B604A5C48604903F05CFC36
:1058B00002233B700C2006F0C5F9814603AB04932C
:1058C00005900023036043608360291BCA10930086
:1058D0009B1818011B1818021B1818041B185B00D2
:1058E000984690444246002914DB002A1DD000232C
:1058F000802109058A425B41002B0ED1100106F080
:10590000A1F906004B461E6043461B01F3184A46A8
:1059100093602DE04C4825F063F880235B059A42A4
:1059200001D325F025F825F013F80026EAE7220038
:1059300023783370A068E168B060F1602378012BB0
:105940001FD0022B26D0032B2DD0082B34D00023C0
:105950001370002000219060D1603378012B34D087
:10596000022B3BD0032B42D0082B49D018341036E1
:10597000A5426BD021690029D9D03000FFF748FD3E
:10598000F4E7A1680029DCD1294B274A234829499B
:1059900003F0EAFB91680029D5D1274B224A1F4822
:1059A000264903F0E1FB91680029CED1244B1E4A21
:1059B0001A48244903F0D8FB9368002BC7D1194B30
:1059C000194A1648194903F0CFFBB268002AC7D11B
:1059D000174B154A1148174903F0C6FBB268002A55
:1059E000C0D1154B104A0D48144903F0BDFBB268F5
:1059F000002AB9D1124B0C4A0848124903F0B4FBF3
:105A0000B368002BB2D1074B074A0448074903F09B
:105A1000ABFBC046A8A9051048BA051020A0051088
:105A2000974C0000A0A60510C0A30510B74D0000BC
:105A300088A30510B44D000030A60510B54D000038
:105A400068A60510B64D000008DF05104B465E60E5
:105A5000059B002B11D000220592BB603B78012BE7
:105A600011D0022B18D0032B1FD0082B26D03800C2
:105A70000BB0C0BCB946B046F0BD154B154A164830
:105A8000164903F071FBBA68002AEAD1144B154A93
:105A90001148154903F068FBBA68002AE3D1134B9B
:105AA000104A0D48124903F05FFBBA68002ADCD1A6
:105AB000104B0C4A0848104903F056FBBB68002BFA
:105AC000D5D10E4B074A04480D4903F04DFBC046A3
:105AD000A8A905103CDF051020A00510974C000078
