:020000041000EA
:1000000000B5324B212058609868022188439860DF
:10001000D860186158612E4B002199600221596106
:100020000121F02299502B49196001219960352056
:1000300000F044F80222904214D00621196600F024
:1000400034F8196E01211966002018661A6600F04E
:100050002CF8196E196E196E052000F02FF8012189
:100060000842F9D1002199601B49196000215960AB
:100070001A491B48016001219960EB211966A021F2
:10008000196600F012F800219960164914480160C1
:100090000121996001BC002800D000471248134993
:1000A000086003C880F30888084703B5996A0420EC
:1000B0000142FBD001200142F8D103BD02B5186610
:1000C0001866FFF7F2FF186E186E02BD00000240BE
:1000D000000000180000070000035F00212200005C
:1000E000F4000018222000A00001001008ED00E03C
:1000F00000000000000000000000000074B24E7A12
:1001000000200420F7010010C3010010C5010010F9
:10011000C1010010C1010010C1010010C101001097
:10012000C1010010C1010010C1010010C701001081
:10013000C1010010C1010010C9010010CB01001065
:10014000CD010010CD010010CD010010CD01001037
:10015000CD010010CD010010CD010010CD01001027
:10016000CD010010CD010010CD010010CD01001017
:10017000CD010010CD010010CD010010CD01001007
:10018000CD010010CD010010CD010010CD010010F7
:10019000CD010010CD010010CD010010CD010010E7
:1001A000CD010010CD010010CD010010CD010010D7
:1001B000CD010010CD010010CD010010CD010010C7
:1001C00000BE00BE00BE00BE00BE00BE00F04BF888
:1001D000103800BEF2EB887140A90A1060A90A101D
:1001E0003402001090A31AE700202149086006C8D5
:1001F00081F3088810471F48006800282FD10DA4FC
:100200000ECC002902D000F012F8F9E71A491B4A77
:10021000002000E001C19142FCD1194988471949E9
:1002200088471949884700BEFDE701C901C29A42C3
:10023000FBD3704760A90A10C00000205829002095
:10024000F8D10A100000042000000420F8D10A10A0
:1002500000100420001004200000000070470B482C
:1002600009F0ACFD0047EFF30580C0B27047000015
:1002700008ED00E0000000D058290020CC09012042
:100280006D810010615600109582001057560000D5
:1002900006005250ABB36053700506100600525072
:1002A000861C030280050610060052505422A29DAF
:1002B0008C05061005005250DE65F468F8D10A106E
:1002C000F8B5C04606480749091A8B10C90FC91866
:1002D00010B5491003D0044B002B00D0984710BD37
:1002E000582900205829002000000000054B10B5B7
:1002F000002B03D00449054800E000BFFFF7E2FFF0
:1003000010BDC0460000000048F7002090F4051022
:10031000080070477047C0467047C046030010B5DC
:10032000DB680C309B68984710BDC04610B50400D0
:1003300014210AF045FF200010BDC04610B504008E
:1003400008210AF03DFF200010BDC04610B5142161
:100350000AF036FF10BDC046074B0C3010B5040044
:10036000994206D008003AF09BF9431E984140425A
:100370000440200010BDC04638020610406810B589
:10038000054B44681B1B9A4202D83AF063FE10BD2D
:1003900002482FF02DFEC046FFFFFF3F90F40510EE
:1003A000F0B544680E00220067682368083283B005
:1003B0007D1C934213D0A268954206D80022DE55D8
:1003C000236865605A5503B0F0BD012300220093F5
:1003D0003900002320003AF065FC2368EEE70F2285
:1003E000EAE7C046F0B54546DE4657464E46E0B51C
:1003F000040085B038200F000AF0D2FE060003008A
:10040000226918309046656910333061002A00D1A6
:100410002FE103950F2D14D8012D00D0F1E11378B1
:100420003376002328227561002143550020A35C08
:10043000B35430637163082B16D8D64A9B00D35847
:100440009F461800002203A93AF0EAFB039B3061A3
:10045000B3612A0041460AF09DFE039D3069E0E742
:10046000226B636B326373632378E068337000231D
:100470007760B360F360002803D03100FFF7B2FF6C
:10048000F060A5683700002D00D1D5E0C24BB24620
:100490009B4638200AF084FE0400030018302061D7
:1004A0002A696E6990461033002A00D1DBE003967A
:1004B0000F2E00D9C8E0012E00D079E11378237601
:1004C0000023282266618355AB5C0021A3540022DF
:1004D00021636263082B07D85A469B00D3589F4676
:1004E0002A6B6B6B226363632B7823700023A360FA
:1004F000E360BC606760E868002800D197E02100F5
:10050000FFF770FFE060AD68002D00D193E0270099
:10051000BFE72000296B283000F08EF9E4E72B6B51
:10052000182098460AF03CFE002303718360436163
:100530004346011D0600C16001619868002811D082
:10054000FFF750FF03001A009B68002BFBD103004C
:10055000F2601A00DB68002BFBD143465B69326115
:100560007361B0602663BFE72B0028331A7A30230B
:10057000E254B9E72A6B6B6B22636363B4E72B6BBE
:10058000202098460AF00CFE434659681A68060077
:100590008B1A99460023036043608360914200D127
:1005A00003E14B46002B00DA3CE148460AF0F8FD37
:1005B00003000190336073604B44B36000204346F6
:1005C00081460ACB5A1A8B4200D005E1019B4B446D
:1005D000736043461A695B693261736143461B7EEF
:1005E0003376266380E72B6B182098460AF0D8FDF7
:1005F00006004346083030601B68994643465B68F6
:1006000098464B46002B00D1CAE0434603930F2B7C
:1006100000D9D1E0012B00D006E14B461B783372A4
:100620004346424673600023835426635CE7AD680B
:10063000002D00D06BE75646300005B0F0BCBB463D
:10064000B246A946A046F0BD1800002203A93AF020
:10065000E7FA039B2061A361320041460AF09AFD4C
:10066000039E20692CE7002E00D129E74B482FF08C
:10067000A7FC002D00D1D4E6F8E7236B182098469C
:100680000AF08EFD05004346083028601B68994635
:1006900043465B6898464B46002B00D1BDE043467D
:1006A00003930F2B00D99CE0012B00D0C0E04B46F8
:1006B0001B782B72434642466B600023835435639C
:1006C000D2E6236B182098460AF06AFD00230371D6
:1006D000836043614346011D0500C1600161986864
:1006E000002811D0FFF77EFE03001A009B68002B44
:1006F000FBD10300EA601A00DB68002BFBD1434604
:100700005B692A616B61A8603563ADE63000216BDF
:10071000283000F091F8A7E6236B202099460AF0D4
:100720003FFD4B4659681A6805008B1A9A4600230C
:10073000036043608360914267D05346002B71DBB6
:1007400050460AF02DFD804643462B606B605346B1
:100750004344AB6000204B4682460ACB5A1A8B4278
:1007600056D142464B4652446A601A695B692A6117
:100770006B614B461B7E2B76356375E62300283371
:100780001A7A3023F2546FE6226B636B3263736321
:100790006AE6C046D4F40510F8F40510A8F4051074
:1007A0004346002B00D13BE760E70023019301E7BC
:1007B000002E00D184E64FE70022300003A93AF072
:1007C0002FFA039B3060B360424649460AF0E2FCD0
:1007D000039B3068984623E7019891465EF048FEF7
:1007E000F4E60022280003A93AF01AFA039B2860D5
:1007F000AB60424649460AF0CDFC039B2868984608
:1008000058E7002D00D10CE623E6002398469BE72D
:10081000404692465EF02CFEA3E74346002B00D1F3
:1008200048E723E72FF09CFB002B00D1F8E6CBE74D
:10083000002B00D13EE7DCE7F0B5DE4645465746E3
:100840004E46E0B589B003900C200C000AF0A8FCDD
:10085000834600225D46606823680090C11A2A60C2
:100860006A60AA60984200D16FE1CE4B0D009942B8
:1008700000D9B3E108000AF093FC0600626823681F
:1008800000925A467519166056609560009A9A4211
:100890001CD09846C44B444601935B460493002108
:1008A00000222378B160F2603370082B07D8BF4A6A
:1008B0009B00D3589F46A268E368B260F360009B38
:1008C00010341036A342EAD1049B9B465B465A463D
:1008D0005E60039B9A6009B0F0BCBB46B246A94675
:1008E000A046F0BDA368202098460AF059FC434674
:1008F00059681A6805008B1A994600230360436003
:100900008360914200D13DE14B46002B00DA46E185
:1009100048460AF045FC07004B46FB18AB60002038
:1009200043462F606F600ACB81465A1A8B4200D033
:100930002AE143461A695B692A616B6143464F4469
:100940006F601B7E2B76B560B9E7237A3372B6E70A
:100950001820A7680AF024FC0500083028603B68CE
:100960007F689846002B00D113E107970F2F00D91D
:10097000F2E0012F00D035E11B782B7200236F606D
:10098000C355B5609BE71820A7680AF009FC00234F
:10099000011D836005000371C16001614361B86896
:1009A0000028D0D0FFF71EFD03001A009B68002B23
:1009B000FBD10300EA601A00DB68002BFBD17B69E6
:1009C0002A616B61A860B56079E70C20A7680AF01E
:1009D000E7FB834600235D4679683A682B60881AF6
:1009E0006B60AB60914200D1B2E06E4B80469842A2
:1009F00000D9D2E00AF0D4FB05005B461D605D60C3
:100A000043465A46EB1893607A683B6802929342D9
:100A100019D01F00A146B246002100223B78A960F0
:100A2000EA602B70082B07D8019A9B00D3589F4689
:100A3000BA68FB68AA60EB60029B10371035BB42B6
:100A4000EAD14C4656465B465D60B36037E7A26824
:100A5000E368B260F36032E7BA68FB68AA60EB60F3
:100A6000EAE7BB68202098460AF09AFB4346040058
:100A700000215A681B682160D01A05906160A1604E
:100A80009A427DD0002800DA89E00AF089FB06004E
:100A9000059B0020F318A3604346266066600ACBDE
:100AA00005905A1A8B4200D093E0059B9C46434622
:100AB0001A695B69226163614346664466601B7E16
:100AC0002376AC60B8E73B7A2B72B5E71820BE6896
:100AD0000AF066FB0023011D836004000371C160FE
:100AE00001614361B0680028EBD0FFF77BFC030095
:100AF0001A009B68002BFBD10300E2601A00DB6840
:100B0000002BFBD1736922616361A060AC6093E745
:100B10001820BE680AF044FB0400083020603368E7
:100B200076689846002B26D007960F2E42D8012EC5
:100B30005CD11B782372002366608355AC607BE731
:100B40002800B968FFF778FE76E70025002698E6CA
:100B500000230025984650E70022280007A93AF014
:100B60005FF8079B2860AB603A0041460AF012FB31
:100B7000079F286802E7002EDDD00D482FF020FAED
:100B8000002685E70027C7E6380091465EF070FC36
:100B9000CFE6002F00D1F1E6EFE7002820DB2FF0B1
:100BA000DFF9C046F0FFFF7F40F505101CF505108A
:100BB000A8F405100022200007A93AF031F8079B9D
:100BC0002060A360320041460AF0E4FA079E2068E4
:100BD000B1E7300005925EF04BFC66E70029DEDAF3
:100BE0002FF0CEF9002F00D1C8E6BDE7002EA2D02D
:100BF000E8E7C046F0B5C646804600B5012384B09C
:100C0000002297493AF0E8FA43461D6803AB2818DA
:100C1000427800261A70827800245A7002AB5F1D59
:100C20003B78302B4FD0312B00D19EE0322B00D1BE
:100C30008DE0332B35D1300009F0F6FB02000B00BC
:100C4000002088490AF03AF80022874B09F077FB28
:100C500000900191200009F0E7FB02000B000098D2
:100C6000019909F04DFB09F0F7FB0400013F012E4B
:100C700025D143465A68012A00D8EFE06B1C0020BA
:100C8000AD1803E001335040AB4202D01A782A2A53
:100C9000F8D1001B43425841C0B204B080BCB846F2
:100CA000F0BD342B1BD1300009F0BEFB02000B005D
:100CB00000206C490AF002F800226C4BC6E73B7832
:100CC0000126302BAFD1300009F0AEFB02000B0043
:100CD0000020644909F0F2FF00220023B6E7352B1B
:100CE0000BD1300009F0A0FB02000B0000205D4991
:100CF00009F0E4FF00225E4BA8E7362B0BD1300051
:100D000009F092FB02000B000020564909F0D6FFC3
:100D10000022584B9AE7372B0BD1300009F084FBA7
:100D200002000B0000204F4909F0C8FF0022524B7F
:100D30008CE7382B2FD1300009F076FB02000B0036
:100D40000020484909F0BAFF00224C4B7EE73000F2
:100D500009F06AFB02000B000020424909F0AEFFD7
:100D600002000B0009F0CCFA72E7300009F05CFBDE
:100D700002000B0000203B4909F0A0FF0090019108
:100D8000200009F051FB009A019B09F0B9FA09F023
:100D900063FB04006AE7392B0BD1300009F044FBF8
:100DA00002000B0000202F4909F088FF0022344B7D
:100DB0004CE7412B0BD1300009F036FB02000B0051
:100DC0000020284909F07AFF00222E4B3EE7422BF3
:100DD0000BD1300009F028FB02000B000020214954
:100DE00009F06CFF0022284B30E7432B0BD1300079
:100DF00009F01AFB02000B0000201A4909F05EFFFF
:100E00000022224B22E7442B0BD1300009F00CFBCF
:100E100002000B000020134909F050FF00221C4B78
:100E200014E7452B0BD1300009F0FEFA02000B004D
:100E300000200C4909F042FF0022164B06E7462B22
:100E400000D013E7300009F0EFFA02000B00002099
:100E5000044909F033FF00220F4BF7E6002018E7A2
:100E600080F50510000030400000084000001040F0
:100E7000000014400000184000001C40000020400A
:100E800000002240000024400000264000002840CE
:100E900000002A4000002C4000002E40F0B5C6465D
:100EA000804600B5160086B000221F005449022378
:100EB0003AF092F943461B681B189A7802A82C2A2C
:100EC00014D00270DA782C2A10D042701A792C2AA9
:100ED0000CD082705A792C2A08D0C2709A792C2AA8
:100EE00004D00271DB792C2B00D0437101A952F0A0
:100EF000B5FF444A444B09F022FA444A444B09F0F6
:100F0000FAF9404A04000D003F4B3000390009F067
:100F100016FA02000B002000290009F0F1F93B4A03
:100F20003B4B04000D0009F067FA002850D0200068
:100F30002900364A364B09F0DEF9344A344B09F0C1
:100F4000DAF904000D000022324B2000290009F0DC
:100F5000F6F909F007FE00222E4B09F0D6F90C9B9A
:100F6000002218605960022340462B493AF034F9B8
:100F700043461B681B189A7804A82C2A14D00270C8
:100F8000DA782C2A10D042701A792C2A0CD0827070
:100F90005A792C2A08D0C2709A792C2A04D002716E
:100FA000DB792C2B00D0437101A952F057FF1B4A6B
:100FB0001B4B09F0C4F909F0D5FD0022194B09F0CB
:100FC000A4F90D9B1860596006B080BCB846F0BD0E
:100FD000200029000D4A144B09F0F8F90028B2D07E
:100FE00020002900094A0A4B09F085F902000B008C
:100FF0000648074909F07FF904000D00A3E7C04641
:1010000084F50510399D52A246DF913F182D4454B6
:10101000FB21094000408F4088F50510E869C02099
:10102000E993144000002440FB2109C0F8B5CE46E6
:101030004746802304000D0080B51B05994237D236
:10104000036881689C46C91A0B119D422CD96346DE
:101050004068C31A994600239846002D09D02D01F7
:1010600028000AF09DF82368A1689C4680466068C5
:10107000C91A63464246844509D01E7816709E6898
:10108000DF6810339660D76010329842F5D163461E
:10109000002B02D060460AF093F8434623604B468B
:1010A000454443446360A560C0BCB946B046F8BD42
:1010B00001482EF09DFFC0468CF50510F0B557464F
:1010C0004E46DE464546E0B54B6889B081468A46C5
:1010D0009C460492002B7CD0002300209B46CD4BE5
:1010E00000249846CC4B00250593CC4B0026069354
:1010F000CB4B00276146079303901BE03F20103441
:1011000024014444A45C1840AD010543002C21D0C7
:10111000012C2DD0049A002A06D14A46D1194E221C
:101120008B54534659680137039B013303930136AF
:101130008E4235D2534642461B689B5DD25C002CE2
:10114000DCD1FF25D540103424014444A45C1D406B
:10115000002CDDD1222D43D8072D00D8B4E02A0081
:10116000083A1A2A00D9AFE0AE4992008A58974649
:101170009A234A469B00D358002B00D1A2E15A1E65
:10118000012AD4D80398421E9041361A012B00D16F
:10119000CAE0002301365F46002403938E42C9D380
:1011A000002C00D0E4E0002F13D04B4649461868CD
:1011B000994A03684E315B68934200D00CE1406865
:1011C000994B42689B1A9F4200D978E13A0039F066
:1011D00041FF09B0F0BCBB46B246A946A046F0BDEF
:1011E0005C2D7DD149464E227B1CC9194B448D5440
:1011F00002379D5480239B00DB1B0C2B05D95346E3
:1012000059680023BB46039391E74B46494618684B
:10121000059A03684E315B68934252D14068824B15
:1012200042689B1A9F4200D949E13A0039F012FF07
:1012300053465968002300279B46039377E74946A6
:101240004E225C20C919885422217B1C4B44023752
:101250009954CFE749464E225C20C919885472211F
:101260007B1C4B4402379954C4E749464E225C200C
:10127000C919885466217B1C4B4402379954B9E73D
:1012800049464E225C20C91988546E217B1C4B4470
:1012900002379954AEE749464E225C20C91988545A
:1012A00074217B1C4B4402379954A3E749464E22D4
:1012B0005C20C919885462217B1C4B440237995425
:1012C00098E73A009847B3E71F2D09D848464E30B3
:1012D000C0192B000721069A08F0F8FC063789E7A9
:1012E000049A002A1AD07E2D18D980235B029D42D1
:1012F000ECD34E4A4E499446AB0A63448C4648466A
:10130000AA05920D624492B24E30C01900920D218E
:10131000079A9BB208F0DAFC0C376BE74A46D11902
:101320004E2201378B5465E7049B002B00D183E0EC
:101330004B464E225C215B4499541A0019314F32BE
:101340001170190066225F4650310A704A708A7027
:101350005333023A06371A7080239B00DB1B0C2B99
:101360003DD9534659680023BB4600240393DEE66B
:101370009A234A469B00D358022B72D000DD28E7FF
:10138000002B00D19EE0012B00D022E749461068D7
:10139000214C03684E315B68A3425FD14068224B09
:1013A00042689B1A9B4500D989E05A4639F052FEA3
:1013B000049B002B67D04B46186803685B68A34208
:1013C00075D14068184B42689B1A052B77D90622C5
:1013D000184939F03FFEFCE63A009847F9E64B46DB
:1013E000494618680C4A03684E315B68934232D113
:1013F00040680D4B42689B1A9F4260D83A0039F012
:1014000029FE53465968002300249B460027039376
:101410008DE6C04660F905107D0300109CF50510AF
:10142000A4F50510C0F50510FFFFFF3FC0D7FFFF73
:1014300000DCFFFFB4F505104B464E22EF215B4464
:1014400099541A0030394F3211705F46BD22503323
:1014500003371A7080E73A009847D2E75A46984710
:10146000A6E749461068184A03684E315B68934204
:101470001AD14068154B42689B1A9B451FD85A46A3
:1014800039F0E8FDA5E64B46186803685B68A3429F
:1014900011D140680D4B42689B1A022B0FD90322D1
:1014A0000B4939F0D7FD94E65A46984791E6062253
:1014B000084998478DE603220549984789E606487A
:1014C0002EF096FD4DF0B4FC7D030010FFFFFF3FB2
:1014D000BCF50510B4F5051090F40510F8B54E46AE
:1014E000DE46574645460C00E0B5060000291AD0F6
:1014F000476802683549BD1A2B119B4683689A4696
:101500005B46C91A5346DB1B1B119C4211D82200B3
:101510003B000021013A197099601033002AF9D17B
:1015200024013C197460F0BCBB46B246A946A046F3
:10153000F8BDA14246D323005C4500D25B465B4424
:101540009B452BD8002189468846002B32D12300A9
:1015500000214544013B2970A9601035002BF9D1C9
:1015600013004546974209D0197829709868D968C0
:101570001033A860E9601035BB42F5D1002A04D0D1
:1015800053461000991A09F01BFE434633604B4640
:101590005C44270147447760B360C4E70C4B99462D
:1015A000484609F0FDFD8046B36832689A46776880
:1015B000C144CCE780221205934200D3034B1B01A8
:1015C0009946EDE703482EF013FDC046FFFFFF07E5
:1015D000F0FFFF7F2CF60510F0B5DE4657464E466D
:1015E0004546E0B58C6883B0824693460091002C56
:1015F00042D01368576899462369666998463D004A
:10160000B74200D93500002D0DD02A00414648468A
:101610005DF08EFE002806D007DBE3680022002B79
:1016200007D01C00E8E7B81BF7D5A3680122002B00
:10163000F7D10194002A20D1002D14D02A00494668
:1016400040465DF075FE00280DD00EDB5346524635
:101650001C6000235360504603B0F0BCBB46B2464A
:10166000A946A046F0BDF01BF0D5002352461360FA
:101670005346019A5A60EEE70C1D009BDB68A342BB
:1016800014D020001DF070FE0369466998465B4641
:101690001B68350099465B465F68BE4202D80194DC
:1016A0000400C9E701943D000400C5E75246002349
:1016B00054601360CFE7C046F0B54E4645465746E6
:1016C000DE46E0B50368466890463D4A9946F31AFF
:1016D00007000D000C0083B01B1193426CD0012257
:1016E000002B02D05A0093424CD84B46EB1A9B4633
:1016F000002A58D110239246019241465246097859
:101700005A44117041468868C9689060D1600022CF
:10171000414600200A70002142469060D160A945F0
:101720000ED04B465246197811709868D96810331C
:101730009060D1601032AB42F5D15B461033534418
:10174000AE422ED0761B9E192278A068E1681A70EE
:101750009860D960103310349E42F5D14B46002B6F
:1017600004D0B9684846C91A09F02AFD53463B60BF
:10177000019B7E60BB6003B0F0BCBB46B246A9468D
:10178000A046F0BD4B46CB1A9B460E4B180001936A
:1017900009F006FD8246019B534401930300103378
:1017A000ABE71E00DAE780231B059A4200D3044A08
:1017B000130118000193EBE703482EF019FCC04613
:1017C000FFFFFF07F0FFFF7F48F60510F0B5DE468C
:1017D00057464E464546E0B54B1E8DB003900291EC
:1017E000012B49D9032936D016D908290DD1040077
:1017F00000680368002B05D081681800C91A09F039
:10180000DFFC2068202109F0DBFC0DB0F0BCBB46FA
:10181000B246A946A046F0BD029B022BF5D1039B20
:101820001E6834687568AC4208D020002178083002
:101830001034FFF7CBFFA542F7D13568002D04D057
:10184000B1682800491B09F0BBFC039B0C211868F8
:1018500009F0B6FCD9E7040000680200036808320A
:10186000934205D081681800013109F0A9FC206875
:10187000182109F0A5FCC8E7002300220492059373
:101880000023040006930368022900D109E1596985
:1018900004A8FFF7CBFB2368059DDC6804339A4658
:1018A000069B984654451CD02823994600230026C1
:1018B0009B460027454500D1E2E04B46E35C200013
:1018C0002B70226B636BAA60EB604B465A46103557
:1018D000E2542663676305951DF01AFD04008245F6
:1018E000E8D1049B47460193AB4207D15FE04146F4
:1018F0000AA8FFF76BFF019BAB4257D010235B4256
:101900009A46AA4453461B7828009846424604ABA0
:1019100008381A74026843680A920B9353460022EF
:1019200000241A705246002300219360D46005926F
:10193000FFF74CFF43465446022B4DD05546012B32
:10194000D5D10A9B9A46DE68042353449946B34294
:101950001AD02825BC4200D182E0735D300023708C
:10196000326B736BA260E360002300227355002387
:1019700010343263736305941DF0CAFC0600814580
:10198000E8D12500049B01935346986800F026FD9A
:101990005246002349469360D1601161536141462C
:1019A0000AA8FFF713FF019BAB42A7D1B846002D51
:1019B00004D043462800591B09F002FC029B012B6E
:1019C00000D029E7039C2368986800F007FD1821E0
:1019D000206809F0F5FB18E70A9B1E689B465B68C8
:1019E00099469B1B1D11002B00DC99E05146B94222
:1019F0002BD0337800240B70B268F3688A60CB6018
:101A00000023337000231031013DB360F460059171
:101A10001036002DEBD15B460D001E685B689946C1
:101A2000049B01934E4500D161E74B463400A94623
:101A30001D002000217808301034FFF7C7FEAC42AB
:101A4000F7D15B464D465E6051E7320004A8013D88
:101A5000FFF732FE10360599069F002DC7D1DAE751
:101A600032002100283204A8FFF726FE30001DF0C6
:101A70004FFC059C0600069F814500D06AE780E781
:101A800022002900283204A8FFF716FE069B20003A
:101A900098461DF03DFC059D0400504500D009E727
:101AA0001FE759681B6804A8C91A0911FFF7BEFA95
:101AB0002368059D1C685B681B1B1A119146002B4F
:101AC00030DD069B00269846002300279A464146B3
:101AD00013E023782B70A268E368AA60EB6053469A
:101AE000237001235B429C46E1444B461035A660BF
:101AF000E76005951034002B10D08D42E9D1290004
:101B0000220004A8FFF7D8FD01235B429C46E14474
:101B10004B46059D06991034002BEED18846E0E631
:101B200055467FE7069B9846DBE6C046F0B546463D
:101B3000D6464F46C0B588B004AE04000D1E0296CE
:101B400000D1ACE0080051F01FF9070000900F2809
:101B500065D8012850D16A462B78137433000022CF
:101B600003901A542578002D4BD0012D00D099E018
:101B70003820A56809F014FB182398468044434692
:101B800007000361029B04001037B34200D17EE0DE
:101B90000361049B8361039B6A466361994600234A
:101BA000137428222900A35468463A002363039340
:101BB0000296FFF711FD009B019F9A46002F3DD032
:101BC000002B4DD02B1D9846012043463A002100A2
:101BD0001DF0E6FB6B6901336B6102982834B0425B
:101BE00003D00499013109F0EBFA200008B0E0BC01
:101BF000BA46B146A846F0BD33000028AFD0300049
:101C000015E001231820237009F0CAFA031D05719D
:101C100085604561C36025780361A060A5E7002267
:101C2000694602A838F0FCFF009B029004933A003A
:101C3000290009F0AFFA0098029B90E720000021EC
:101C40003030FFF7C3FD2069804503D0A169013121
:101C500009F0B6FA2000382109F0B2FA5446BCE780
:101C60002B1D98469F4218D07B694A469A46994553
:101C700000D91A00002A05D0396920695DF058FBA7
:101C8000002802D14B465246981AC00F9DE71022F9
:101C90003100404609F07EFA7DE7012095E70248D1
:101CA0002EF08EF94DF0C4F8A8F40510F0B5C64634
:101CB00000B5070082B0884608300021FFF786FD96
:101CC000032318203B7009F06BFA06000836066003
:101CD0000400404651F058F8050001900F2811D833
:101CE00001280CD143461B7823720021019B2268F6
:101CF0006360D154BC6002B080BCB846F0BD00281F
:101D0000F3D008E00022200001A938F089FF060086
:101D1000019B2060A3602A004146300009F03AFA96
:101D2000E3E7C046F0B55746DE4645464E46834695
:101D30000023E0B58FB003700C005B4600200491D7
:101D400000215700BF18FF009860D960E3199A4638
:101D50007D10FB10ED1805922A01AD182A02AD186E
:101D60002A04AD186D00ED18AA10032D00DCF2E274
:101D70002000210053009B185B011830E3180A690A
:101D8000002A00D184E11678022E37D08A4500D18E
:101D90009EE002235A460C20137009F001FA00233A
:101DA0000600A846036043608360002F00DAB9E2B2
:101DB00043460025002B05D01B011800984609F06A
:101DC000EFF905004346EB183560B360544500D188
:101DD000B3E05746B246D04B00932369002B00D1A5
:101DE0001EE1002000211A78A860E9602A70082A04
:101DF00000D99CE0009992008A589746926816682C
:101E00005268921B202AC1D13278032ABED18A6A35
:101E1000002A00D1A4E21678022E00D07EE2926859
:101E200016685268921B202A00D077E23278032A83
:101E300000D073E22D3294460E6C8C44002E00D1FB
:101E4000C3E23278022A00D06AE2B66844CEB61AFB
:101E5000202E00D064E21278032A00D060E24532DE
:101E600094468E6D8C44002E00D1B0E23278022A66
:101E700000D055E2B66844CEB61A202E00D04FE20C
:101E80001278032A00D04BE2603160308B4200D0E0
:101E900075E753465A1AA14BD2105343022B00D177
:101EA00076E2032B00D161E2012B11D10B69002BEB
:101EB00000D184E21A78022A00D067E79B680CCB35
:101EC0009B1A202B00D061E71378032B00D05DE72D
:101ED00001235A461820137009F062F90023037198
:101EE000836043615B46021D2700C2600261986007
:101EF000544525D08A4B0393534602933B69002BEC
:101F000000D17DE01A789246514604AA117600224B
:101F100000210C910D925246082A00D9D7E103996D
:101F200092008A5897469A68DB68AA60EB6018347A
:101F30001035A74200D050E756465B4675609E605C
:101F40000FB0F0BCBB46B246A946A046F0BD9A68A9
:101F5000D96816680C920D915B469B683820B5686D
:101F6000984609F01DF910239C468444634600936B
:101F700018239C46082284446346914603610193DA
:101F80002B68A94404004B4500D183E00361AB6892
:101F900083616B68002163614B4629722B60696025
:101FA0002825337C08A86355B269F369226363630B
:101FB000002300223174B261F3614146009AFFF7B9
:101FC0000BFB099E089B002E36D0002B46D04346C3
:101FD00001201D1D2B00320021001DF0E1F94346B8
:101FE00042465B690133536151460CA8FFF7EEFB93
:101FF000029B1837BB42A3D03B69002B00D081E77E
:102000003A780024924651463B70002304AA117688
:10201000F868BA680D90BB60FC6016680C929BE78C
:10202000227823702A700023A068E1680022A8604B
:10203000E960A260E3607AE72000615D3030FFF77D
:10204000C5FB2069019B834203D0A169013109F0DE
:10205000B7F83821200009F0B3F8C5E743461D1D45
:10206000AE4200D136E16369994673694A460093EE
:10207000994500D927E1002A05D0316920695DF032
:1020800057F9002802D14B46009A981AC00FA1E7D1
:102090000A0078E649466046083209F07BF878E79E
:1020A0009A68DB68AA60EB6041E79B68202098464D
:1020B00009F076F843465A681B680600D11A89462B
:1020C00000210160416081609A4200D114E14B46D9
:1020D000002B00DA42E1484609F062F80300019063
:1020E000336073604B44B3600020434681460ACBA3
:1020F0005A1A8B4200D018E1019B4B44736043464F
:102100001A695B693261736143461B7E3376AE6048
:102110000DE71B7A2B720AE798F60510ABAAAAAA5C
:10212000BCF605109B681820984609F039F806009F
:102130004346083030601B68994643465B689846C2
:102140004B46002B00D1F5E043460A930F2B00D9F4
:10215000C2E0012B00D005E14B461B7833724346A9
:1021600000227360C254AE60E1E628009968FEF771
:1021700063FBDCE69B681820984609F011F8002301
:102180000371836043614346011D0600C160016124
:1021900098680028BBD0FEF725F903001A009B6859
:1021A000002BFBD10300F2601A00DB68002BFBD18F
:1021B00043465B6932617361B060AE60B7E69968AF
:1021C000D8680A0003000E680C920D93C4E69D685F
:1021D000202008F0E5FF6A682B680400D11A8846C1
:1021E00000210160416081609A4200D1A9E043462C
:1021F000002B00DAB2E0404608F0D2FF060043466A
:102200000020F31826606660A36029686B6880462A
:102210005A1A8B4200D096E04346F31863602A694D
:102220006B69226163612B7E0C94237694E62021F6
:102230001B7A04AA521813700C9B1E688CE6182097
:102240009D6808F0ADFF0400083020602E686D68BE
:10225000002E7DD007950F2D51D8012D00D0AAE07A
:102260003378237200236560435529E099680AA8F2
:10227000FEF7E2FA0C9B1E6804AB1B7E9A466BE6E7
:1022800018209D6808F08CFF0023011D8360040066
:102290000371C16001614361A868002810D0FEF796
:1022A000A1F803001A009B68002BFBD10300E26039
:1022B0001A00DB68002BFBD16B6922616361A060AF
:1022C00026680C9448E61A1E00D0D6E6DBE600230A
:1022D0001E6841E601207DE6002230000AA938F0A0
:1022E0009FFC0A9B3060B3604246494608F052FFAB
:1022F0000A9B3068984632E700230193F0E60022FB
:10230000200007A938F08CFC079B2060A3602A00FE
:10231000310008F03FFF079D2068A3E7010035E585
:10232000614633E52B482DF063FE019891465DF040
:102330009FF8E1E64346002B00D110E726482DF038
:102340003FFE00265BE7300090465DF091F863E7C2
:10235000002D87D0F2E72B0021009FE52DF000FE35
:10236000020058E5002B00D1F9E6BDE70B69002B10
:1023700029D01A78022A00D008E59B680CCB9B1A5A
:10238000202B00D002E51378032B00D0FEE4183197
:102390000B69002B15D01A78022A00D0F6E49B684E
:1023A0000CCB9B1A202B00D0F0E41378032B00D029
:1023B000ECE418317AE5002D00D153E7A7E70B00D4
:1023C00078E50B00E7E70B00D3E7664639E566469C
:1023D0004CE5C04664F60510A8F40510F0B5DE46DD
:1023E00057464E464546E0B583B00090002800D1E0
:1023F00048E1009BDB689B46002B00D123E15B4654
:10240000DB689A46002B00D1FDE05B460193534602
:10241000DB689946002B00D1B9E04B46DD68002D02
:1024200000D194E0EE68002E73D0A846F568002D28
:1024300058D0EC68002C3DD0E768002F22D0A3468E
:10244000F868FFF7CBFF28233800F95C3030BC6810
:10245000FFF7BCF93B003869183398420BD0B969D3
:10246000013108F0ADFE3821380008F0A9FE002C3B
:1024700007D02700E4E73821380008F0A1FE002C3F
:10248000F7D15C4628232000E15C3030A768FFF7D5
:102490009DF9230020691833984200D191E0A16989
:1024A000013108F08DFE3821200008F089FE002F50
:1024B00000D08DE028232800E95C3030AC68FFF7BD
:1024C00085F92B0028691833984200D18AE0A96960
:1024D000013108F075FE3821280008F071FE002C4B
:1024E00000D086E028233000F15C3030B468FFF77C
:1024F0006DF933003069183398426BD0B1690131FE
:1025000008F05EFE3821300008F05AFE002C67D13A
:10251000454628232800E95C3030AC68FFF756F9BF
:102520002B002869183398420BD0A969013108F0B3
:1025300047FE3821280008F043FE002C07D0250074
:1025400070E73821280008F03BFE002CF7D14B46FD
:1025500028224846995C30309C68FFF737F94B4693
:102560001869183398420CD04B469969013108F02C
:1025700027FE3821484608F023FE002C07D0A1464C
:102580004BE73821484608F01BFE002CF7D1534694
:1025900028225046995C30309C68FFF717F9534663
:1025A00018691833984226D053469969013108F0CA
:1025B00007FE3821504608F003FE002C21D0A24629
:1025C00025E73821200008F0FBFD002F00D171E73E
:1025D0003C0031E73821300008F0F2FD002C97D0A4
:1025E000260023E73821280008F0EAFD002C00D15E
:1025F00078E725001DE73821504608F0E1FD002C62
:10260000DDD1019B9B465B4628225846995C3030C1
:102610009C68FFF7DBF85B461869183398420CD0CA
:102620005B469969013108F0CBFD3821584608F026
:10263000C7FD002C07D0A346E1E63821584608F034
:10264000BFFD002CF7D1009D28232800E95C303025
:10265000AC68FFF7BBF82B002869183398420BD001
:10266000A969013108F0ACFD3821280008F0A8FD67
:10267000002C07D00094BCE63821009808F0A0FD9B
:10268000002CF7D103B0F0BCBB46B246A946A04629
:10269000F0BDC046F0B54E46DE4657464546E0B56D
:1026A0009BB0259B1692249A1D0D1B0383468946D9
:1026B00016001F0B002D1BD0802330000022390094
:1026C0005B03801859413E4300D085E1012D01D1C3
:1026D00000F094FDD7491F006C18D74980238C4621
:1026E00001201600D5490122AC449B03404210E072
:1026F000D34B9C4634003D000120A4197D410021AC
:1027000022002B00241A8D4112184B412000290071
:102710006446013C009001912100089609979218A7
:102720005B410F0014001D000139002BF7DA0098FF
:102730000199B846089E099F424663469B1A1A00B3
:1027400008940995203A00D56AE104009440149455
:1027500002009A400C92B6197F41002FFBDA3D220D
:1027600043465242D21A13019B18DB009B18D90032
:102770005B189B019B18D9178903890BCB18D117BC
:102780008A1AD20F9B149B1807223433FF33D917B0
:102790000A40D218D210AB4B12019B185A681C6821
:1027A0003000109300210023924608F02BFC2200F9
:1027B00000230A900E913800002108F023FC22002B
:1027C00000231290159130000021009408F01AFCAB
:1027D00000250C0000230A9A002012196B41802466
:1027E0000025240612196B410025129C0021A41813
:1027F0005D410A950025159C0B900E9852462418B1
:102800004D410023380008F0FDFB001969410A9B87
:102810000B9C1B184C415246129313940C980023A6
:10282000002108F0EFFB009E002332000A90159172
:102830001498002108F0E6FB109D5246AB681790F3
:10284000089C099D9844200000231891002108F05D
:10285000D9FB32000700002328000E91002108F068
:10286000D1FB009A0600002320001991002108F0F6
:10287000C9FB3C000A000025002312196B4180248B
:102880000025240612196B413400002512196B41F2
:1028900009981C0052460023002108F0B3FB0122D6
:1028A0005242D3178018594100230E9A002512185E
:1028B0004B4100211998260012184B412F00B618E1
:1028C0005F41109D5246EB68169D5B420E960F9736
:1028D0002B600023149808F095FBC243CB430021E2
:1028E00018983400121A8B41002115983D00121AD5
:1028F0008B410C98A4185D41009A002308F082FBDC
:1029000000230A0000210A9812184B418020002160
:10291000000612184B410021179812184B41002154
:102920001800241A8D410C940D95129B139CF61AD5
:10293000A741402342465B429B1A98460096019766
:10294000203B4FD49A460024002352460A930B940E
:102950000133934042460B93012393400A9353461D
:10296000002B51DB0F98D8400A9C0B9D012252424C
:10297000D317A4185D4123002C000E9D0F9A1D4013
:1029800010931194304B22402E001700984267D8C4
:102990002E4B984200D91CE32D4B984200D9FFE200
:1029A0002C4B984200D920E32B4B984200D927E3C7
:1029B0002A4B984200D927E3FA24A400A04200D36E
:1029C000A4E3632800D9B6E3092801D900F0C9FBC4
:1029D00001230124149346E0164B06009C460F0089
:1029E000AC4487E69A464246202300219B1A0022E7
:1029F0000A910B920122DA4001230B924246934046
:102A00000A935346002BADDA20239B1A0E990F9A96
:102A100010009840424603000800D0401843A3E746
:102A200020220400D21AD44022000C009C401443FF
:102A300014948DE6CCFBFFFFCBFBFFFFFFFF3F00B5
:102A4000CDFBFFFF48FD0510FFC99A3BFFE0F505F0
:102A50007F9698003F420F009F8601000F270000DD
:102A60000A23D54C1493210007F002FA4B460D00BF
:102A7000159149461B6830305A1C0A605A46D0549A
:102A8000149B013B08935346002B00DA58E22900BF
:102A900099400B002900404681400A0092197B4171
:102AA00019000D9B1000994200D8B1E20A212000C4
:102AB00007F0DEF9089B1790002B00D172E10100AE
:102AC000159807F0D5F94B460D00159149461B683E
:102AD00030305A1C0A605A46D054149B023B08936B
:102AE0005346002B00DA33E2290099400B002900FD
:102AF000404681400A0092197B4119000D9B10004D
:102B0000994200D805E36421200007F0B1F9089B41
:102B10001790002B00D145E10100159807F0A8F9A6
:102B20004B460D00159149461B6830305A1C0A600F
:102B30005A46D054149B033B08935346002B00DAAB
:102B40000EE2290099400B002900404681400A000E
:102B500092197B4119000D9B1000994200D8E1E2C7
:102B6000FA212000890007F083F9089B1790002BB9
:102B700000D117E10100159807F07AF94B460D00D6
:102B8000159149461B6830305A1C0A605A46D05489
:102B9000149B043B08935346002B00DAE8E129001C
:102BA00099400B002900404681400A0092197B4160
:102BB00019000D9B1000994200D8C0E220007F4907
:102BC00007F056F9089B1790002B00D1EAE00100AE
:102BD000159807F04DF94B460D00159149461B68B5
:102BE00030305A1C0A605A46D054149B053B089357
:102BF0005346002B00DAC3E1290099400B0029005D
:102C0000404681400A0092197B4119000D9B10003B
:102C1000994200D89CE22000694907F029F9089BF5
:102C20001790002B00D1BDE00100159807F020F9A6
:102C30004B460D00159149461B6830305A1C0A60FE
:102C40005A46D054149B063B08935346002B00DA97
:102C50009EE1290099400B002900404681400A006E
:102C600092197B4119000D9B1000994200D87CE21B
:102C70002000544907F0FCF8089B1790002B00D166
:102C800090E00100159807F0F3F84B460D00159100
:102C900049461B6830305A1C0A605A46D054149B6F
:102CA000073B08935346002B00DA7DE12900994049
:102CB0000B002900404681400A0092197B4119000F
:102CC0000D9B1000994200D858E220003E4907F0C1
:102CD000CFF8089B1790002B64D00100159807F0DF
:102CE000C7F84B460D00159149461B6830305A1CF9
:102CF0000A605A46D054149B083B08935346002B55
:102D000000DA5EE1290099400B002900404681402D
:102D10000A0092197B4119000D9B1000994200D8BE
:102D200035E22000294907F0A3F8089B1790002BF3
:102D300038D00100159807F09BF84B460D0015910F
:102D400049461B6830305A1C0A605A46D054149BBE
:102D5000093B08935346002B00DA3EE129009940D5
:102D60000B002900404681400A0092197B4119005E
:102D70000D9B1000994200D812E220000E4907F086
:102D800077F8089B0400002B0CD04B4649461B6883
:102D9000159D5A1C0A605A463035D5540D9B9F42EA
:102DA00000D806E2434620250024ED1AA4460E95DD
:102DB00014930C9C0D9D37E000CA9A3B102700002D
:102DC000A086010040420F008096980000E1F505C2
:102DD000099ADA405B4630325A540123AA009846D9
:102DE000A30F1A43A30005920493049A059B12199A
:102DF0006B4192185B41089209931D00009B1400DF
:102E0000990F019BC4449B000B43079300980199C1
:102E100083000693069A079B801859410018494180
:102E200000900191AF4227D9B30FBA001A43B30003
:102E300003920293029A039B92197B4192185B4181
:102E400008920993109A119B1100089801400E00F6
:102E500009990B401F004B461968481C18605346DF
:102E6000002BB5DA0E9B099A08989A401300149A21
:102E7000D04002001A43ADE7AF4201D1A642D3D8F9
:102E80006446169B1D682C1B1C604C462468A0469B
:102E9000B94200D899E1089C099DA41BBD410B9B38
:102EA000AB4230D800D1A0E10A9C0B9D089A099B47
:102EB000121BAB410124921BBB4164424444A44613
:102EC00000920193029003910A980B9934003D00FF
:102ED00036184F4102980399B9421BD801D1B0422C
:102EE00018D80298039902000B00361A8F41121B62
:102EF000AB41BB4200D87CE047465B465A46013FA7
:102F0000DB5D013BD3551BB0F0BCBB46B246A946C6
:102F1000A046F0BD59460A9A0B9B60460C5C1D000A
:102F2000013C0C54140000980199001BA9410400B5
:102F300001980D008342E6D83ED000940195C3E786
:102F4000434620212800C91AC84029000300A2E5F1
:102F5000434620212800C91AC84029000300C7E5BC
:102F6000434620212800C91AC84029000300ECE587
:102F7000434620212800C91AC8402900030012E650
:102F8000434620212800C91AC8402900030037E61B
:102F9000434620212800C91AC840290003005CE6E6
:102FA0000823994C14935EE5434620212800C91A52
:102FB000C840290003007DE60A99009B9942BCD9CC
:102FC000A1E7434620212800C91AC8402900030070
:102FD0009CE609238D4C149345E5434620212800A7
:102FE000C91AC84029000300BCE60723884C149383
:102FF00039E5BB4200D086E7B24200D97CE782E7E0
:103000000623844C14932EE50523834C14932AE560
:103010000C9A0D9B994202D1904200D946E5089D39
:10302000169AAC461368634413605346002B5CDB6E
:1030300025009D402B004546AC4022004C462468AC
:10304000A046019C8C4200D8C6E00C9C0D9D241A21
:103050008D41AB4200D956E700D1CBE0A41A9D4187
:10306000260001242F0064424444A446029603979C
:10307000009D019E04900591801859418E421CD8F4
:1030800001D1854219D8049C059D009A019B0E9E92
:103090000F9F121BAB4114001D00129A139B921B31
:1030A000BB4112184B419D422AD943465A465946C4
:1030B000013BD25C013ACA5425E765465C46664648
:1030C000645D5D46013CAC55029E039F34003D00AB
:1030D000A41A9D4104940595BB4200D913E70BD077
:1030E000049C059D02940395C2E7202342462600D6
:1030F0009D1AEE4033009EE7029CA242F0D902E7FF
:103100009D4200D0FFE69442CFD8FCE604231493FE
:10311000A9E40C9A0D9B994202D1904200D9F2E4A5
:10312000179C7CE70C9A0D9B9942F9D1904200D9EB
:1031300016E5179C73E703236424149393E40C9A15
:103140000D9B9942ECD1904200D937E5179C66E778
:103150000C9A0D9B9942E3D1904200D95BE5179CF4
:103160005DE702230A2414937DE40C9A0D9B994297
:10317000D6D1904200D97BE5179C50E70C9A0D9B65
:103180009942CDD1904200D99FE5179C47E70C9A10
:103190000D9B9942C4D1904200D9C2E5179C3EE7ED
:1031A0000C9A0D9B9942BBD1904200D9E5E5179C42
:1031B00035E70C9A0D9B9F4202D1964200D9F1E56A
:1031C000002330003900089329E7B94200D09AE67D
:1031D000B04200D95FE696E6009C019D8D4200D08A
:1031E00091E6844200D930E78DE60A9BA34200D8DD
:1031F0005AE688E6A24200D830E784E6074916007E
:103200008C461F00FFF776FA8096980000E1F505DE
:1032100040420F00A086010010270000CDFBFFFFF9
:10322000F0B54E464546DE465746E0B51E000B78E3
:1032300004000D008BB0092B20D8C9499B00CB5846
:103240009F462068C74A03681B68934201D000F07C
:10325000C9FF446822006568236808326E1C9342E7
:1032600001D101F012FCA268964201D900F0AFFF33
:1032700030225A550022236866609A550BB0F0BC84
:10328000BB46B246A946A046F0BD0122EF68AE6833
:103290007D006D0830002900B34B524207F0B1F8B1
:1032A00000280AD1012230002900AF4B524207F01A
:1032B000A3F8002801D100F06DFD2068AB4A036837
:1032C0005B68934201D001F05EF94068A84B426808
:1032D0009B1A032B00D819E30422A64937F0BAFE43
:1032E000CCE7AB6800685B69002B01D101F000F905
:1032F0000368002A01D100F0FBFD9C4A5B689246FE
:10330000934201D001F08CFC4068994B42689B1AB3
:10331000012B00D8FAE20222974937F09BFE149A5B
:10332000159B94466344994694239B00E01841689A
:10333000494501D201F02FFDAB68DA685B69904620
:10334000012B7FD000231700A846B3460293854B7C
:1033500006938A4B07939422206892000368A15831
:103360005B68534501D001F086F94068804B4268A4
:103370009B1A994500D9C9E24A4637F06BFE20688E
:10338000069A03681B68934201D001F082F94568F0
:103390002A006B68083204935E1C2B68934201D1AB
:1033A00001F0A7F9AA68964201D901F0E1F82222BA
:1033B00004995A5400222B686E609A5539002000F7
:1033C0005A461031FDF77AFE206803685B68534562
:1033D00001D001F059F94068654B42689B1A022BF5
:1033E00000D893E20322079937F034FE4B463900A8
:1033F0000193149B2000009301225B462831FFF7C4
:103400000FFF206803685B68534501D001F037F96E
:103410004068574B42689B1A012B00D876E2022283
:10342000574937F017FE029D3800013502951BF011
:1034300085FF43469B6807005B69013BAB428AD826
:1034400080465E469422206892000368A1585B681B
:10345000534501D001F009FC4068454B42689B1A76
:10346000994500D952E24A4637F0F4FD20683D4FB5
:1034700003681B68BB4201D001F0F3FB45682A00DA
:103480006B680832029301339B462B68934201D14B
:1034900001F03EFCAA68934501D901F073FB22229A
:1034A00002995A545B46002259466B602B685A5465
:1034B0004146200032001031FDF700FE206803680D
:1034C0005B68534501D001F0C7FB4068284B426858
:1034D0009B1A022B00D819E20322284937F0BAFDC3
:1034E0004B4641460193149B200000930122330078
:1034F0002831FFF795FE206803681B68BB4201D0A6
:1035000001F0A6FB45682A006B68083298465E1CED
:103510002B68934201D101F0F2FBAA68964201D9CF
:1035200001F025FB0A2241465A5400222B686E60A6
:103530009A559422206892000368A1585B6853450D
:1035400001D001F096FB4068094B42689B1A159A1E
:103550009A4200D9DAE137F07DFD00F0B6FDC046B1
:1035600060F70510A1030010FFFFEF7F7D0300103F
:10357000FFFFFF3F18F70510E4F6051014F70510DC
:10358000E8F60510AB68006859681B68994201D1DC
:1035900001F09BF80368002A01D100F02FFCDD4AFE
:1035A0005B689246934201D001F01DFB4068DA4B04
:1035B00042689B1A012B00D8A8E10222D74937F0B4
:1035C00049FD149A159B94466344984694239B00A6
:1035D000E0184168884501D901F0D2FBAA68536818
:1035E0001768103B9F4245D094239B009B46CC4BD1
:1035F0002A00994653464546B24690461E005A4612
:103600002068A15803685B68B34201D000F0C5FF91
:103610004068C14B42689B1A9D4200D976E12A005E
:1036200037F018FD149B2000009301225346390007
:103630000195FFF7F5FD206803685B68B34201D090
:1036400000F0A6FF4068B44B42689B1A012B00D8DB
:103650005CE10222494637F0FDFC43469B68103787
:103660005B68103BBB42CAD143463200A84656466F
:103670001D0092469422206892000368A1585B685E
:10368000534501D001F0A3FA4068A34B42689B1A4E
:10369000984500D93AE1424637F0DCFCAB6820009F
:1036A000596843460193149B01220093103933005B
:1036B000FFF7B6FD20689B4F03681B68BB4201D033
:1036C00001F081FA45682A006B68083298465E1C52
:1036D0002B68934201D101F0D0FAAA68964201D931
:1036E00001F0BCF90A2241465A5400222B686E6050
:1036F0009A559422206892000368A1585B6853454C
:1037000001D001F06CFA4068834B42689B1A159A0D
:103710009A4200D9FAE037F09DFC206803681B68E4
:10372000BB4201D001F0C9F84468220065682368F3
:1037300008326E1C934201D101F01EF9A268964234
:1037400001D900F038FD5D2293E50068754F0368EC
:103750001B68BB4201D000F0A3FF436898465B683A
:1037600042469A4601235344994643461B68083211
:10377000934201D101F0D1F842469268914501D9B6
:1037800000F001FD222251465A5443464A4649461A
:103790005A6000221B685A5420003200A968FDF7C5
:1037A0008DFC206803681B68BB4201D000F07CFFE1
:1037B00044682200666823680832751C934201D170
:1037C00001F0B5F8A268954201D900F0D1FC22229F
:1037D0009A550022236865605A554FE52B7A006898
:1037E000002B00D1C2E203684A4A5B68934201D0D1
:1037F00001F06FF94068484B42689B1A032B00D8D0
:1038000084E00422484937F025FC37E5AA68EB68D4
:10381000110002920393194300D112E50299039A11
:1038200008239A4613008244002A01DA00F063FC60
:103830000A000E001F1E01DC01F096FB029A039B9A
:10384000190001239846394B10009B46384B0496CB
:10385000059799460023374A07000D0006F04AFBFA
:10386000434604339846002DF4D14F4501D801F06A
:1038700012FC5F4501D801F026FC2F4B9F4201D876
:1038800001F01EFC2D4B9F42E4D8049E059F434649
:103890000333984641465144294B8D1E9946294B86
:1038A0009B46300039006422002306F023FB5200BF
:1038B0004A44B446060050783B00687012780F0006
:1038C0002A702900023D002BEBD1DC45E9D8002FFE
:1038D00003D1092E01D800F032FE194B7600F618FC
:1038E00072784B1E1A70337802390B702068094ABF
:1038F00003685B68934201D001F027F84068064BEB
:1039000042689B1A4246434500D38DE00E482CF096
:103910006FFBC0467D030010FFFFFF3FF4F605106C
:10392000E8F60510A103001044F705103F420F0010
:103930009F860100102700007F969800FFE0F505A4
:10394000F0FA05100F27000090F40510AE68EF683C
:1039500033003B4300D174E408239A468244002F8D
:1039600001D101F0C9FAB24B3000390001259B4664
:10397000A046B1460023AF4A06000C0006F0BAFA92
:103980002B000435002CF5D1AB4A964201D801F04A
:103990005BFB5E4501D800F0C3FFA84A964201D800
:1039A00000F0C8FFA64A9642E4D844464E46DD1DC4
:1039B00053465B19023B9946A24B9846A24B9B4645
:1039C000300039006422002306F094FA5200424489
:1039D0003B000F00517802968C460600494660462F
:1039E000487012780A708A1E9146002BE8D1029B1B
:1039F0005B45E5D81A00FA239B009A4201D300F0F8
:103A000090FD013930360E702068904A03685B687B
:103A1000934201D000F09EFF40688D4B42689B1A94
:103A20009D4200D972E72A00514637F013FB25E486
:103A3000006803685B68002A00D1D8E0834A924698
:103A4000934201D001F032F84068814B42689B1AE2
:103A5000012B00D85AE702227E4937F0FBFA149A6C
:103A6000159B944694229200A018416863440293E7
:103A70008B4201D901F04FF994222068920003682B
:103A8000A1585B68534501D001F00CF84068704BB9
:103A900042689B1A029A9A4200D937E737F0DAFA5D
:103AA000206803685B68534501D000F0F6FF40686A
:103AB000674B42689B1A092B00D827E70A22664900
:103AC00037F0C8FAAB681E685B689E4201D100F00F
:103AD00057FC013B9E4201D100F017FC5F4BA94609
:103AE00098465F4B04934AE008239B460300A34497
:103AF000092801D800F0FCFE632801D801F015F96F
:103B0000270003250B3764220023002106F0F2F979
:103B10005200424403005078791E08701278023F28
:103B20003A70013F30333B70206803685B6853454F
:103B300001D000F0D8FC4068454B42689B1AAB426C
:103B400000D2E3E62A00594637F084FA2068036879
:103B50005B68534500D056E340683D4B42689B1A72
:103B6000012B00D8D2E602223E4937F073FA4B46C9
:103B70009B6801365B68013BB34200D1C4E33078F7
:103B80000028B1D12068049A03681B68934201D0D1
:103B900000F093FD47683A007B6808329B465D1C45
:103BA0003B68934201D100F0CAFEBA68954201D940
:103BB00000F009FD302259465A5400223B687D60CE
:103BC0005A55C3E70068214A03685B68934201D0F5
:103BD00000F06EFD40681E4B42689B1A0A2B00D80D
:103BE00094E60B22204937F035FAFFF747FB174AD6
:103BF0009246934201D000F04BFF4068144B42685C
:103C00009B1A092B00D881E60A22184937F022FABC
:103C1000AB681E685B689E4200D148E3013B9E4250
:103C200000D10AE30E4BA94602930C4B049376E0B5
:103C30003F420F00102700009F8601007F969800EA
:103C4000FFE0F505B8FB05100F2700007D0300100D
:103C5000FFFFFF3FE4F60510F8F6051080FC0510A5
:103C6000A103001004F7051054F7051020F7051004
:103C7000082398460300A044092801D800F021FE3B
:103C8000632801D801F04DF8250003270B35642285
:103C90000023002106F02EF990495200521803002B
:103CA0005078691E08701278023D2A70013D303349
:103CB0002B70206803685B68534501D000F00DFC51
:103CC0004068874B42689B1ABB4200D21EE63A000E
:103CD000414637F0BFF9029F206803681B68BB426A
:103CE00000D08DE245682A006B68083298465F1C58
:103CF0002B68934200D1E4E3AA68974200D975E2A9
:103D00002C2241465A5400222B686F60DA554B46EC
:103D10009B6801365B68013BB34200D18CE230788E
:103D20000028A5D120686F4F03681B68BB4201D0F3
:103D300000F0C7FC45686B682A009B4601235B4482
:103D400098462B680832934201D100F0FBFDAA6827
:103D5000904501D900F02CFC302259465A54434674
:103D6000002241466B602B685A54B5E703685E4AEF
:103D70005B68934201D000F0B8FE4068584B42683F
:103D80009B1A042B00D8C1E50522584937F062F987
:103D9000FFF774FA08239846A0444546002F07DA37
:103DA00080231B069C4625002D236744093523727A
:103DB000002200233000390006F000FB002801D16A
:103DC00000F022FC30232E222B706A70EE1CAB70A8
:103DD0004246206844490368B21A5B688B4201D0AE
:103DE00000F088FE40683E4B41685B1A9A4200D959
:103DF0008CE5414637F02EF9FFF740FA1B68394F42
:103E0000BB4201D000F0E7FE436898465B6842463B
:103E10009A4601235344994643461B68083293420D
:103E200001D100F02DFF42469268914501D900F082
:103E300020FE5B2251465A5443464A4649465A6040
:103E400000221B685A54AB681A685B689146103BA5
:103E50009A4238D0B046B94626002F001400159B70
:103E600030000193149B0022009321004346FFF78A
:103E7000D7F9306803681B684B4500D091E345686B
:103E80006B682A009B4601235B449A462B680832E4
:103E9000934201D100F001FCAA68924500D912E3D7
:103EA0002C2259465A545346002251466B602B68C7
:103EB0005A54BB6810345B68103B9C42CFD14F46CC
:103EC000A14634004646159B00220193149B4946A7
:103ED000009320003300FFF7A3F91EE480FC0510D7
:103EE000FFFFFF3FA10300107D0300104CF70510FA
:103EF0001B68C74FBB4201D000F0A1FE4368984643
:103F00005B6842469A4601235344994643461B68E0
:103F10000832934201D100F0F8FE42469268914582
:103F200001D900F03AFE7B2251465A5443464A4694
:103F300049465A6000221B685A54AB68DA685B69CC
:103F40009046012B01D100F057FE00230293B14BA4
:103F500032009A46B04B2600069353464446AA4682
:103F6000B94690460493306803681B684B4500D0FF
:103F70007EE345682A006B6808329B465F1C2B680D
:103F8000934200D1BAE3AA68974200D9DCE2222228
:103F900059465A5400222B686F60DA552100424678
:103FA00030001031FDF78AF83068049A03685B68C6
:103FB000934200D055E34068984B42689B1A012B0E
:103FC00000D8A3E40222069937F044F82100159B9B
:103FD00030000193149B0022009328314346FFF7E1
:103FE0001FF9306803681B684B4500D03DE3456806
:103FF0002A006B6808329B465F1C2B68934200D1F5
:104000007AE3AA68974200D9A8E22C2259465A546A
:1040100000222B686F60DA55029D20000135029561
:104020001BF08CF953469B6804005B69013BAB4273
:1040300099D84346049A3400804692464F461E0063
:10404000206803681B68BB4201D000F0F4FD45689E
:104050006B682A009B4601235B4499462B68083213
:10406000934201D100F04EFEAA68914501D900F0BB
:1040700073FD222259465A544B46002249466B6032
:104080002B685A544146200032001031FDF716F8D3
:10409000206803685B68534501D000F0D4FD406898
:1040A0005E4B42689B1A012B00D82FE402225A492A
:1040B00036F0D0FF4146159B00220193149B20004F
:1040C000009328313300FFF7ABF8206803681B68C2
:1040D000BB4200D068E24468220066682368083268
:1040E000751C934201D100F044FCA268954256D859
:1040F0007D22FFF76DFB2D2300274E42974103726F
:10410000002F01D100F071FF454B3000390001252F
:104110009B46A146029603970023424A07000C00E3
:10412000043505F0E7FE002CF6D13F4B9F4201D845
:1041300000F0B5FF5F4501D800F0BCFF3B4B9F424C
:1041400001D800F0B1FF3A4B9F42E5D84C46029EA1
:10415000039F03356B1C190098465144002F01D072
:10416000FFF79AFB632E01D9FFF796FBFFF7AFFB32
:1041700001230022009331000023200036F092FD3D
:104180002368FFF724FB01230022009351460023FC
:10419000404636F087FD43461B68FFF7F3FA0123DC
:1041A0000022009331000023200036F07BFD7D22A9
:1041B0002368FFF70DFB0123002200932900002351
:1041C000200036F06FFD5D222368FFF752F80123CF
:1041D0000022009329000023200036F063FD2368AD
:1041E000FFF746F830219847FFF748F801230022EF
:1041F000009341460023280036F054FD2B687FE5EC
:104200002C21984783E502220A499847AFE4C0462B
:10421000A10300107D030010ECF60510FFFFFF3F27
:104220003F420F00102700009F8601007F969800F4
:10423000FFE0F50504F705104D461878002800D179
:10424000D4E3270001000837092801D800F03BFE1D
:10425000632801D800F0C5FE0B2398460326A0442E
:1042600064220023002105F045FEDC4B5200D218E9
:10427000434601005078013B187043461278023BD8
:104280001A70013B30311970206803685B68534530
:1042900001D000F04EFD4068D14B42689B1AB342FA
:1042A00001D2FFF733FB3200390036F0D3FE20682D
:1042B00003685B68534501D000F0FDFB4068C84BC4
:1042C00042689B1A0B2B01D8FFF720FB0C22C54933
:1042D00036F0C0FEAB681A7E002A00D07EE220686D
:1042E00003685B68534501D000F095FC4068BC4B07
:1042F00042689B1A042B01D8FFF708FB0522BA4934
:1043000036F0A8FEFEF7BAFF4D461878002800D117
:104310004BE3082398460100A044092801D800F087
:10432000BDFD632801D800F058FE0B2399460327F2
:10433000A14464220023002105F0DCFDA74B5200BC
:10434000D2184B4601005078013B18704B4612784A
:10435000023B1A70013B30311970206803685B68BA
:10436000534501D000F0EAFC40689D4B42689B1A1F
:10437000BB4201D2FFF7CAFA3A00414636F06AFE64
:10438000206803685B68534500D09EE34068944B07
:1043900042689B1A022B01D8FFF7B8FA032293490F
:1043A00036F058FE9422206892000368A1585B689A
:1043B000534500D086E34068894B42689B1A029AB5
:1043C0009A4201D9FFF7A2FA36F044FE206803684A
:1043D0005B68534500D081E34068814B42689B1A7B
:1043E0000A2B01D8FFF792FA0B22814936F032FEF0
:1043F000AB681A7E002A00D082E1206803685B68FF
:10440000534501D000F011FC4068754B42689B1A7F
:10441000032B01D8FFF77AFA0422764936F01AFE08
:10442000754F206803681B68BB4200D05AE345689B
:104430002A006B68083298465E1C2B68934200D1B4
:10444000D8E3AA68964200D989E20A2241465A5422
:1044500000222B686E609A559422206892000368AF
:10446000A1585B68534500D029E340685C4B426823
:104470009B1A159A9A4201D9FFF748FA36F0EAFDDD
:10448000206803681B68BB4200D08DE044682200AE
:104490006568236808326E1C934200D1A8E3A268C5
:1044A000964202D87D22FEF7E4FE0123002200930B
:1044B00029000023200036F0F5FB7D222368FEF75B
:1044C000D8FE0F2219E4012300220093594600234D
:1044D000280036F0E7FB2B68E2E43A0041469847B3
:1044E000029FFFF7F9FB2A0059469847FFF72EFB7A
:1044F0000368424A5B68934200D087E34068384BC8
:1045000042689B1A012B01D8FFF700FA02223C49AE
:1045100036F0A0FDFEF7B2FE3A4B010002259846A8
:104520000A317600464472784B1E1A70337802398D
:104530000B70FFF769FA0123210098460931013910
:1045400030360E70FFF7D2F901230022009359464E
:104550000023280036F0A6FB2B6818E50123002273
:10456000009359460023280036F09CFB2B684CE54D
:1045700001230022009328000023049936F092FBC7
:104580002B68FEF714FF04221A499847FEF776FEBF
:10459000022249469847FFF760F82A009847FFF73C
:1045A00041F82C21984784E47D219847FEF766FE68
:1045B00001230022009359460023280036F072FBA5
:1045C0002B68FFF7C9FB0123002200935946002303
:1045D000380036F067FB3B68FFF7ECFA80FC05100B
:1045E000FFFFFF3F2CF705103CF7051008F70510FB
:1045F0000CF7051018F70510A10300107D0300103B
:10460000E0F60510B8FB05103B0032000890009260
:104610000193099009AA280008A9FEF73BF8099B15
:10462000089F9946FE18B74200DDA8E10F2E00DC76
:10463000EBE3012F00D0BCE26F1C65233B70751EBD
:1046400000D5DDE2BB1C99462B237B70092D00DDD4
:1046500054E24A46302330351370961C5570FFF7EC
:10466000B7FB022206999847B0E42C219847D3E47F
:104670002221984792E44A469847FEF780FE02229C
:10468000E9499847FEF7CFFE032207999847FEF7BE
:10469000ADFE22219847FEF791FE0F22FFF7FDFBAA
:1046A00022219847FFF778F822219847FEF7E6FD88
:1046B0000B22DE499847FEF7E1FD30219847FFF7CE
:1046C00045FA30219847FFF707FB0368D84A5B6833
:1046D000934200D05AE34068D64B42689B1A012BA4
:1046E00001D8FFF713F90222D34936F0B3FCFEF7E5
:1046F000C5FD0F22FEF757FE0F2283E40F2243E48D
:104700001D695F692B003B4300D1DAE208239B4619
:10471000A344002F01D100F09BFC280039000126A2
:10472000A046A9460023C54A05000C0005F0E2FB9F
:1047300033000436002CF5D1C14A954201D800F06F
:10474000C5FCC04A954200D87DE3BF4B9D4201D8CD
:1047500000F0C0FCBD4B9D42E4D844464D460336B4
:104760005B469B19023B9946B94B98462800390095
:104770006422002305F0BEFB520042443B000F00C0
:10478000517802958C46050049466046487012787B
:104790000A708A1E9146002BE8D1029BAD4A9342D3
:1047A000E4D81A00FA239B009A4200D320E301398F
:1047B00030350D70206803685B68534500D036E3E0
:1047C00040689C4B42689B1AB34201D2FFF79EF8A7
:1047D0003200594636F03EFC9F4F22E61D695F6964
:1047E0002B003B4300D14EE208239B46A344002FFD
:1047F00001D100F018FC280039000126A046A94686
:1048000000238E4A05000C0005F074FB33000436CB
:10481000002CF5D18A4A954201D800F068FC894AFB
:10482000954200D864E3884B9D4201D800F057FCC4
:10483000864B9D42E4D844464D4603365B469B1961
:10484000023B9946824B9846280039006422002397
:1048500005F050FB520042443B000F005178029596
:104860008C46050049466046487012780A708A1ED8
:104870009146002BE8D1029B764A9342E4D81A0075
:10488000FA239B009A4200D3A4E2013930350D701F
:10489000206803685B68534500D0CEE24068654BF2
:1048A00042689B1AB34201D2FFF730F832005946F2
:1048B00036F0D0FB684FFFF708FC5D219847FEF704
:1048C000DDFC250001270935632801D9FFF7DFF951
:1048D000092801D8FFF7EAF9049B40009C46604490
:1048E00042786B1E1A700378023D2B70FFF7E1F9D6
:1048F000270001250937632801D9FFF704F90928A2
:1049000001D8FFF70EF94000404442787B1E1A7030
:104910000378023F3B70FFF707F90F22FEF72EFFE7
:104920005D1D534644464E465B19FFF743F80F2280
:10493000FEF749FF44464E469D1DFFF739F80F220A
:10494000FFF734F90F22FFF703FA42465146984722
:10495000FEF794FC2A0051469847FEF78FFC01238E
:104960000022009341460023280036F09BF92B6873
:104970006BE50F22FFF7BAFB0F22FEF7E0FE002ED9
:1049800000DCCFE00F2E00DD53E6AB199A464B4614
:10499000701C5A42514628185AF06AFD2E2352467E
:1049A00001371370EE19FFF713FA20682A4F0368D6
:1049B0001B68BB4200D024E247687B683A009946F6
:1049C00001234B4498463B680832934200D1ADE244
:1049D000BA68904500D9EEE1302249465A54434620
:1049E000002241467B603B685A54C9E420681A4F54
:1049F00003681B68BB4200D015E24668320073684A
:104A0000083298465F1C3368934200D11FE2B268B7
:104A1000974200D9C5E1302241465A5400223368FA
:104A20007760DA5543E4C046E8F6051054F7051000
:104A30007D030010FFFFFF3FF0F605101027000078
:104A40009F8601003F420F007F969800FFE0F5052A
:104A5000B8FB05100F270000A1030010012300225E
:104A6000009341460023280036F01CF92B68FEF71E
:104A700039FE01230022009351460023404636F0C0
:104A800011F943461B68FFF7D4F90F22FEF7ECFB40
:104A90000A22F0499847FFF7BBF80A22EE499847E7
:104AA000FFF710F8029A9847FEF7FAFF0222EB4947
:104AB0009847FEF7D4FF0C22E94998470AE4159A73
:104AC0009847DDE4029A984780E40322E549984735
:104AD00068E40422E4499847FEF7D0FB0B22E3493F
:104AE000984785E40A219847B6E40522E0499847AB
:104AF000FEF7C4FB41469847FEF7C0FB632D00DD7F
:104B000021E10A21280005F0B3F94B463030187036
:104B10000A2128009E1C05F0ABF94B463031597034
:104B2000FFF756F9F31C00DA83E50223981B3A00DD
:104B3000290028189A465AF09BFC30232B70023B20
:104B400072426B703021A81C06F01EFB53464A4689
:104B50009E1AAE19FFF73CF9012300220093594633
:104B60000023280036F09EF82B68FFF782FA012315
:104B70000022009341460023280036F093F82B686A
:104B8000FEF7D0FC012300220093280000230299A5
:104B900036F088F82B68FEF782FC01230022009390
:104BA00051460023404636F07DF843461B68FFF728
:104BB000BAF97A1E691CA81C5AF05AFC2E23013738
:104BC0006B70EF1939E50A219847FEF792FD4246CE
:104BD0009847FEF763FD5B219847FFF734F9159A74
:104BE0009847FEF79AFD0222A2499847FEF7E9FC92
:104BF0000F2255E40F2225E49F4B9A46FFF720FA37
:104C00000125BB1C9946AD1B2D231EE502229B49A5
:104C10009847FEF733FB052299499847FEF72EFB8C
:104C200002228E499847FEF77AFB0422954998475D
:104C3000954FFFF7F6FB22219847FFF723FA7B21D8
:104C40009847FFF77AF9022290499847FFF732FA1E
:104C50000A219847FEF76DFC03228D499847FEF71D
:104C60003FFC22219847FEF723FC4A469847FEF76F
:104C7000FDFB159A9847FFF728FA0F22FEF72EFD45
:104C80000F22FFF7D2F820687F4F03681B68BB42F2
:104C900000D061E145682A006B68083298465E1CC6
:104CA0002B68934200D196E1AA68964200D93FE171
:104CB000302241465A5400222B686E609A55FFF705
:104CC00004FA2068704F03681B68BB4200D047E1BC
:104CD00045682A006B68083298465E1C2B68934230
:104CE00000D176E1AA68964200D92BE130224146F4
:104CF0005A5400222B686E609A55FFF792FB0F22E0
:104D0000FEF70CFC0F22FFF7B0F90F22FFF707F9AF
:104D10000F22FEF7C0FB2022490036F0C3F8FEF751
:104D2000ABFE250002270A35D2E5270002250A3707
:104D3000E5E5320039009847FFF7B9FA3A004146F5
:104D40009847FFF71DFB6421280005F091F84B46BA
:104D5000303018706421280005F08AF80D000A210F
:104D6000280005F085F84B46303058700A2128009D
:104D7000DE1C05F07DF84B4630319970FFF728F8BE
:104D80002022490036F08EF8FEF728FC0222414925
:104D90009847FEF773FA2022490036F083F8FEF7B1
:104DA000CBFA01230022009341460023300035F066
:104DB00079FF33682FE60123002200934946002340
:104DC000380035F06FFF3B6806E6334B21000226C2
:104DD00098460A316D0045446A784B1E1A702B784C
:104DE00002390B7054E52C4B2100022698460A31FB
:104DF0006D0045446A784B1E1A702B7802390B708F
:104E0000D8E430219847FFF7BBFA1A003021E8199F
:104E100006F0BAF92E233022AB55AB1902365A7080
:104E2000AE19FEF7D5FF30219847FFF740FA320060
:104E300059469847144FFFF7F4FA320059469847FD
:104E4000114FFFF742F944464D465E1D88E40F229C
:104E5000DEE5C04620F70510F8F60510E4F605106B
:104E60002CF7051008F7051044F705100CF705108E
:104E70004CF70510F4F605107D030010E0F6051060
:104E80003CF7051018F70510A1030010ECF605100B
:104E900014F70510F0F60510B8FB051023000127E4
:104EA0000933632800D91FE1092801D8FFF752FA16
:104EB000924A4000801841785A1E11700278023BD5
:104EC0001A70FFF74AFA230001260933632800D934
:104ED00011E1092801D8FFF7D4F9884A4000801869
:104EE00041785A1E11700278023B1A70FFF7CCF914
:104EF00044464D465E1DA1E4092E0FD9632E01D80C
:104F0000FFF70AFBFA239B009E420CD37C4B9E4288
:104F100001D9FEF728FD0425FEF74AFD0100012511
:104F20000931FEF76EFD0325FEF742FD0F2250E525
:104F300001230022009341460023280035F0B2FEF1
:104F40002B68B5E601230022009341460023280088
:104F500035F0A8FE2B68C9E630219847FFF7B5F871
:104F600030219847FFF75DFA002B01D0FFF7E3FAF5
:104F7000092901D8FFF7DFFA002B01D0FEF75EFC0C
:104F8000632A13D9FA239B00934208D85C4B9342BF
:104F900001D2FEF753FC01239846FEF778FC01236B
:104FA0009846434602339846FEF774FC0123984620
:104FB0004346013319009846039B5144002B01D00E
:104FC000FEF76AFC029B632B01D9FEF765FCFEF736
:104FD00084FC0F2287E60F2267E6230002270A33AC
:104FE00062E7230002260A3373E7092E0DD9632EE8
:104FF00015D9FA239B009E420DD3414B9E4201D905
:10500000FFF782F80125FFF7A4F8010002230A3117
:105010009846FEF75CFC01250235FFF79BF8012559
:105020000135FFF797F8092D27D9632D00D8CCE675
:10503000FA239B009D421CD3314B9D4201D9FFF7BF
:10504000DAFB0126FFF7F9FB44464E46FEF7B0FCBB
:10505000092D1BD9632D00D8C5E6FA239B009D427C
:1050600010D3274B9D4201D9FFF757FB0126FFF7CD
:1050700076FB01260236FFF7E1FB2100012609310C
:10508000FFF703FC01260236FFF76AFB2100012629
:105090000931FFF78CFB049E059FFEF7FBFB4C4696
:1050A000029E039FFFF756F84C46029E039F02356F
:1050B000FFF750F84C46029E039F0135FFF74AF870
:1050C000049E059F6DE7049E059F71E744464D468B
:1050D000FFF746FB44464D460236FFF741FB444688
:1050E0004D460236FFF7AAFB9946FFF722F94446E0
:1050F0004D46FFF7A3FB9846FFF7B2F880FC05107A
:105100000F270000F0B5DE4657464E4645461300D1
:10511000E0B5994C5968A544528912A806F03AF8AE
:1051200012A9964806F0F4FA002304AA1374002288
:10513000002300210AA80A920B93FCF747FB0323E4
:1051400004AA1820137406F02BF80700083707602C
:10515000050012A84DF018FE060003002B900F2842
:1051600000D9D5E0012800D0BFE0382104AA5218A8
:1051700012782BAC2A7200266B608148FE540A9587
:1051800006F084F9282204AB9B180EAF0D960C97FD
:1051900014201E7006F004F801238360794B2DAEB5
:1051A0000360794B4022C3600CAB03610223436070
:1051B00003000C332B93002160600500300005F0E4
:1051C000E3FF4AF03BFF4368A064002B00D1B1E04D
:1051D0004C221B78A3540368002B00D1B1E01B784C
:1051E0004D22A35404AB9C46EA20B4320021FF3286
:1051F000604405F0C9FF2022644B8021E254C1AB1A
:105200009846942342469B00E25089002022BFA882
:1052100035F024FD9A2300229B00E2506B68013B8D
:105220006B60002B09D12B6828009B689847AB68FE
:10523000013BAB60002B00D18AE0002320000193EA
:105240000093002208A9FDF7EBFF94239B00E05890
:10525000404504D00833E158013105F0B1FF6568DD
:10526000002D0DD06B68013B6B60002B08D12B68C3
:1052700028009B689847AB68013BAB60002B62D06D
:105280000D9A0C99424835F0CDF8036805000C3BA7
:105290001B68C318DB6F9846002B00D1D1E11B7F40
:1052A000002B27D027234246D15C280035F04AF84E
:1052B00034F0C4FF0C98B84203D00E99013105F0C8
:1052C0007FFF04AB1D7C012D47D0324806F0DEF88D
:1052D00029000AA8FCF77AFAC7239B009D44F0BC7A
:1052E000BB46B246A946A046F0BD2BAC002800D173
:1052F00041E717E040461EF077FD43461B680A2150
:105300009A69254B9A42D0D0404690470100CCE79D
:105310002BAC00222100280035F082FC07002B9BDB
:105320002860AB603800320012A905F033FF2B9BD8
:105330002F6820E700234C22A3540368002B00D0E1
:105340004DE700234CE72B682800DB68984797E778
:105350002B682800DB6898476FE70A9B99469F688F
:1053600004234B449A46002FAFD00C4BA846A346CB
:1053700055461C00039317E0E4FCFFFF88F7051077
:1053800098F705104CF9051034F905104E0200008D
:10539000103F00202CF8051011030010B0F7051085
:1053A0003D00BF68002F09D038002100103035F0D3
:1053B00061FF0028F4DAFF68002FF5D15C46AB46A8
:1053C0004546DA4500D180E758460399103035F05C
:1053D00051FF002800DD78E7102300220CA92000EF
:1053E0000C932B9635F01CFC0C9B102203992B90F0
:1053F000A36005F0CFFE0C9B2B9A63603820D75436
:1054000005F0CEFE1823804643449B4603612B9B48
:10541000B34200D1DFE042461361A3689361424684
:105420006368414653610593282200238B5442460A
:105430002B960B63636023724946103206A8FCF773
:10544000CBF8069B079F0493002F00D197E0012023
:10545000002B00D1A7E053463A00414619F0A0FFC7
:105460004B464A465B69013353612B98B04203D0E7
:10547000A168013105F0A4FE28234246D35C053B18
:10548000022B00D924E7714806F000F8102300220F
:105490000CA920000C932B9635F0C2FB0C9B10221C
:1054A00003992B90A36005F075FE00210C9B2B9AAD
:1054B00063603820D15405F073FE102398460833FA
:1054C0009B4683445B4603612B9B07008044B342A9
:1054D00000D1B0E00361A3688361636828227B6127
:1054E000049300232B96BB546360424623723B63B4
:1054F00049460CA8FCF770F80C9B0D9A0393904654
:10550000002A6ED00120002B7DD053464246390040
:1055100019F046FF4B464A465B69013353612B98AD
:10552000B04203D0A168013105F04AFE2823FB5C9C
:10553000062B20D013D8042B1BD13023FC5C260073
:105540002100434806F0E4F83100424806F0E0F854
:10555000414B210041481C7006F0DAF8B8E6072BF1
:1055600071D1386B796B04F077FFFF260400064099
:10557000E6E7052B67D1FF263C6B2640E0E7404677
:1055800000213030FCF722F943461869834503D0E7
:105590009969013105F014FE4046382105F010FEEE
:1055A000049B984661E7BA4500D154E77B699B4666
:1055B000059B1A005B4500D95A46002A06D043468F
:1055C0003969186959F0B4FE002802D15A46059B82
:1055D000981AC00F3FE710223100584605F0DAFD57
:1055E0001DE7380000213030FCF7F0F838698345BA
:1055F00003D0B969013105F0E3FD3800382105F029
:10560000DFFD039F8BE7924500D17EE753699B4600
:10561000049B1A005B4500D95A46002A06D043462F
:105620003869196959F084FE002802D15A46049B52
:10563000981AC00F69E710223100584605F0AAFDFC
:105640004BE72AF0ADFC49F0F3FBC046C4F7051068
:10565000D4F7051064F505101C16002004F8051099
:10566000F0B5DE4657464E464546E0B5E64CA54405
:1056700006F05AF8E54808F069FD002801D000F06E
:1056800033FF08F0BFFC08F01BFF9021E04BE14A1C
:1056900009015A50E0480DF09DFF08F019FFDF495D
:1056A000DF48E04BE04A08F0BBFC061E00D079E181
:1056B000DE4805F0EBFE0121300008F04FFD12F04E
:1056C000CFFBDB4B42AD0D93186012F0C9FBD94CF8
:1056D000D949DA4A206012F0F5F932002068D84939
:1056E00012F09AFB9621D74C4901200002F0CEFC23
:1056F0000221042001F098F80221052001F094F81D
:105700006023E26A002453406E221340CE4A3100E7
:105710001360402210AB9B181E7000232E70AB60EC
:10572000EC6044A82296FCF751F8032218202A7056
:10573000924605F035FD0527040008303A00C349BC
:10574000206005F027FD002367606673AC600024CD
:1057500031002B626C622E612E764AA8FCF736F877
:10576000524618202A7605F01BFD04000137083048
:105770003A00B749206005F00DFD02229046A39241
:10578000AEAA93466760A6732900424658462C622B
:10579000AE620024A295FCF7C5FA5A4600234EAF2C
:1057A0001661BB60FC603800AA493E70FCF77EFAC7
:1057B0000024002331003B627C623E613E7656A8A5
:1057C000FCF704F851461820397605F0E9FC072269
:1057D00004009146083020609F4905F0DBFC4946F3
:1057E00061604146E6733C624246BE62A391B4A842
:1057F0003900A297FCF796FA0023002259465AACCA
:10580000A260E3608E62267031005CA8FBF7DEFFC9
:1058100051461820217005F0C3FC814649460830E6
:10582000524608608D4905F0B5FC49460022002328
:105830005046226263624860CE72A1602661884948
:10584000267660A8FCF732FA434621004246A6625B
:10585000BAA8A393A294FCF765FA5B461E64129360
:1058600053465946524624A81393FCF75BFA7D4BE6
:1058700020A819000593FCF759F90378060099460A
:10588000002B01D100F048FE022B01D000F0B5FF43
:10589000836859681A681800914201D100F04AFEE5
:1058A00071491868FCF742F9502210AB9B181B781D
:1058B0000178037010AB9B1819708268C36802925C
:1058C0000393269A279B8260C360029A039B26A8B3
:1058D00026922793FBF77AFFC0AE183E300031784E
:1058E0000830FBF773FF5E45F7D1217E62A8FBF716
:1058F0006DFF21785CA8FBF769FF397E56A8FBF79E
:1059000065FF397850A8FBF761FF297E4AA8FBF7AD
:105910005DFF297844A8FBF759FF544B544F994633
:10592000544B0B93544B0793544B0693544B08938F
:10593000544B0C93544B0993424910228B69DB065C
:105940002DD414008B691C401A42FAD14B460D68C5
:10595000EDB21D70242D31D13800FBF74BF9824692
:105960000290002800D095E000233A687B60137015
:105970004B4639001E787D683B6808310F226C1C4D
:105980008B4200D0BA68944233D800225E553B68FF
:105990002C497C601A558B691022DB06D1D508F0A2
:1059A00017FEC9E7394805F0B3FE0120384B9D4486
:1059B000F0BCBB46B246A946A046F0BD39007E68A1
:1059C0003B6808310F22741C8B4200D0BA689442A5
:1059D00005D800229D553B687C601A55ACE7012331
:1059E0000022009331000023380035F05BF93B685A
:1059F000EFE701230093002329001A00380035F057
:105A000051F93B68C1E7C046D4FAFFFF47420000A6
:105A1000EC48002058020610C05100204002061039
:105A200050020610102700000400400088F80510FE
:105A30008009012038090120D41406101B10000031
:105A400005510010008003402C90034098F8051089
:105A5000A0F80510A8F80510B0F80510B8F8051062
:105A6000BCF80510C4F80510CCF80510B7090120E2
:105A7000702B00201C160020682B0020582A0020C4
:105A8000D4F80510DCF80510FCF8051064F80510D2
:105A90002C0500000B9B3535187804F0C1FC0B0079
:105AA000079902000191069938000091FBF7F6F979
:105AB000FF3510AB5B1900221C7000230326002168
:105AC00068A868926993FBF781FE10AB5B191E70A2
:105AD000182005F065FB04230500984608301A00DD
